{
  "contractName": "MosaicDAO",
  "abi": [
    {
      "inputs": [
        {
          "internalType": "uint256",
          "name": "width",
          "type": "uint256"
        }
      ],
      "stateMutability": "nonpayable",
      "type": "constructor"
    },
    {
      "anonymous": false,
      "inputs": [
        {
          "indexed": true,
          "internalType": "address",
          "name": "previousOwner",
          "type": "address"
        },
        {
          "indexed": true,
          "internalType": "address",
          "name": "newOwner",
          "type": "address"
        }
      ],
      "name": "OwnershipTransferred",
      "type": "event"
    },
    {
      "inputs": [
        {
          "internalType": "uint256",
          "name": "",
          "type": "uint256"
        }
      ],
      "name": "gallery",
      "outputs": [
        {
          "internalType": "string",
          "name": "",
          "type": "string"
        }
      ],
      "stateMutability": "view",
      "type": "function",
      "constant": true
    },
    {
      "inputs": [],
      "name": "galleryWidth",
      "outputs": [
        {
          "internalType": "uint256",
          "name": "",
          "type": "uint256"
        }
      ],
      "stateMutability": "view",
      "type": "function",
      "constant": true
    },
    {
      "inputs": [],
      "name": "owner",
      "outputs": [
        {
          "internalType": "address",
          "name": "",
          "type": "address"
        }
      ],
      "stateMutability": "view",
      "type": "function",
      "constant": true
    },
    {
      "inputs": [],
      "name": "renounceOwnership",
      "outputs": [],
      "stateMutability": "nonpayable",
      "type": "function"
    },
    {
      "inputs": [
        {
          "internalType": "address",
          "name": "newOwner",
          "type": "address"
        }
      ],
      "name": "transferOwnership",
      "outputs": [],
      "stateMutability": "nonpayable",
      "type": "function"
    },
    {
      "inputs": [],
      "name": "getGalleryList",
      "outputs": [
        {
          "internalType": "string[]",
          "name": "",
          "type": "string[]"
        }
      ],
      "stateMutability": "view",
      "type": "function",
      "constant": true
    },
    {
      "inputs": [
        {
          "internalType": "string",
          "name": "uri",
          "type": "string"
        }
      ],
      "name": "appendImage",
      "outputs": [],
      "stateMutability": "nonpayable",
      "type": "function"
    },
    {
      "inputs": [
        {
          "internalType": "uint256",
          "name": "index",
          "type": "uint256"
        }
      ],
      "name": "removeImage",
      "outputs": [],
      "stateMutability": "nonpayable",
      "type": "function"
    }
  ],
  "bytecode": "0x608060405234801561001057600080fd5b50604051610fae380380610fae8339818101604052810190610032919061013c565b61004e61004361005b60201b60201c565b61006360201b60201c565b8060028190555050610186565b600033905090565b60008060009054906101000a900473ffffffffffffffffffffffffffffffffffffffff169050816000806101000a81548173ffffffffffffffffffffffffffffffffffffffff021916908373ffffffffffffffffffffffffffffffffffffffff1602179055508173ffffffffffffffffffffffffffffffffffffffff168173ffffffffffffffffffffffffffffffffffffffff167f8be0079c531659141344cd1fd0a4f28419497f9722a3daafe3b4186f6b6457e060405160405180910390a35050565b6000815190506101368161016f565b92915050565b60006020828403121561014e57600080fd5b600061015c84828501610127565b91505092915050565b6000819050919050565b61017881610165565b811461018357600080fd5b50565b610e19806101956000396000f3fe608060405234801561001057600080fd5b50600436106100885760003560e01c8063ac48c8b51161005b578063ac48c8b5146100ef578063db978ca51461010d578063f2fde38b1461013d578063fb2f79951461015957610088565b8063715018a61461008d578063781ab7f4146100975780638b25261f146100b55780638da5cb5b146100d1575b600080fd5b610095610175565b005b61009f6101fd565b6040516100ac9190610b16565b60405180910390f35b6100cf60048036038101906100ca91906108ef565b610203565b005b6100d96102e3565b6040516100e69190610a77565b60405180910390f35b6100f761030c565b6040516101049190610a92565b60405180910390f35b610127600480360381019061012291906108ef565b6103e5565b6040516101349190610ab4565b60405180910390f35b61015760048036038101906101529190610885565b610491565b005b610173600480360381019061016e91906108ae565b610589565b005b61017d610644565b73ffffffffffffffffffffffffffffffffffffffff1661019b6102e3565b73ffffffffffffffffffffffffffffffffffffffff16146101f1576040517f08c379a00000000000000000000000000000000000000000000000000000000081526004016101e890610af6565b60405180910390fd5b6101fb600061064c565b565b60025481565b61020b610644565b73ffffffffffffffffffffffffffffffffffffffff166102296102e3565b73ffffffffffffffffffffffffffffffffffffffff161461027f576040517f08c379a000000000000000000000000000000000000000000000000000000000815260040161027690610af6565b60405180910390fd5b600180549050811061029057600080fd5b600181815481106102ca577f4e487b7100000000000000000000000000000000000000000000000000000000600052603260045260246000fd5b9060005260206000200160006102e09190610710565b50565b60008060009054906101000a900473ffffffffffffffffffffffffffffffffffffffff16905090565b60606001805480602002602001604051908101604052809291908181526020016000905b828210156103dc57838290600052602060002001805461034f90610c6b565b80601f016020809104026020016040519081016040528092919081815260200182805461037b90610c6b565b80156103c85780601f1061039d576101008083540402835291602001916103c8565b820191906000526020600020905b8154815290600101906020018083116103ab57829003601f168201915b505050505081526020019060010190610330565b50505050905090565b600181815481106103f557600080fd5b90600052602060002001600091509050805461041090610c6b565b80601f016020809104026020016040519081016040528092919081815260200182805461043c90610c6b565b80156104895780601f1061045e57610100808354040283529160200191610489565b820191906000526020600020905b81548152906001019060200180831161046c57829003601f168201915b505050505081565b610499610644565b73ffffffffffffffffffffffffffffffffffffffff166104b76102e3565b73ffffffffffffffffffffffffffffffffffffffff161461050d576040517f08c379a000000000000000000000000000000000000000000000000000000000815260040161050490610af6565b60405180910390fd5b600073ffffffffffffffffffffffffffffffffffffffff168173ffffffffffffffffffffffffffffffffffffffff16141561057d576040517f08c379a000000000000000000000000000000000000000000000000000000000815260040161057490610ad6565b60405180910390fd5b6105868161064c565b50565b610591610644565b73ffffffffffffffffffffffffffffffffffffffff166105af6102e3565b73ffffffffffffffffffffffffffffffffffffffff1614610605576040517f08c379a00000000000000000000000000000000000000000000000000000000081526004016105fc90610af6565b60405180910390fd5b600181908060018154018082558091505060019003906000526020600020016000909190919091509080519060200190610640929190610750565b5050565b600033905090565b60008060009054906101000a900473ffffffffffffffffffffffffffffffffffffffff169050816000806101000a81548173ffffffffffffffffffffffffffffffffffffffff021916908373ffffffffffffffffffffffffffffffffffffffff1602179055508173ffffffffffffffffffffffffffffffffffffffff168173ffffffffffffffffffffffffffffffffffffffff167f8be0079c531659141344cd1fd0a4f28419497f9722a3daafe3b4186f6b6457e060405160405180910390a35050565b50805461071c90610c6b565b6000825580601f1061072e575061074d565b601f01602090049060005260206000209081019061074c91906107d6565b5b50565b82805461075c90610c6b565b90600052602060002090601f01602090048101928261077e57600085556107c5565b82601f1061079757805160ff19168380011785556107c5565b828001600101855582156107c5579182015b828111156107c45782518255916020019190600101906107a9565b5b5090506107d291906107d6565b5090565b5b808211156107ef5760008160009055506001016107d7565b5090565b600061080661080184610b56565b610b31565b90508281526020810184848401111561081e57600080fd5b610829848285610c29565b509392505050565b60008135905061084081610db5565b92915050565b600082601f83011261085757600080fd5b81356108678482602086016107f3565b91505092915050565b60008135905061087f81610dcc565b92915050565b60006020828403121561089757600080fd5b60006108a584828501610831565b91505092915050565b6000602082840312156108c057600080fd5b600082013567ffffffffffffffff8111156108da57600080fd5b6108e684828501610846565b91505092915050565b60006020828403121561090157600080fd5b600061090f84828501610870565b91505092915050565b600061092483836109b0565b905092915050565b61093581610bed565b82525050565b600061094682610b97565b6109508185610bba565b93508360208202850161096285610b87565b8060005b8581101561099e578484038952815161097f8582610918565b945061098a83610bad565b925060208a01995050600181019050610966565b50829750879550505050505092915050565b60006109bb82610ba2565b6109c58185610bcb565b93506109d5818560208601610c38565b6109de81610d2c565b840191505092915050565b60006109f482610ba2565b6109fe8185610bdc565b9350610a0e818560208601610c38565b610a1781610d2c565b840191505092915050565b6000610a2f602683610bdc565b9150610a3a82610d3d565b604082019050919050565b6000610a52602083610bdc565b9150610a5d82610d8c565b602082019050919050565b610a7181610c1f565b82525050565b6000602082019050610a8c600083018461092c565b92915050565b60006020820190508181036000830152610aac818461093b565b905092915050565b60006020820190508181036000830152610ace81846109e9565b905092915050565b60006020820190508181036000830152610aef81610a22565b9050919050565b60006020820190508181036000830152610b0f81610a45565b9050919050565b6000602082019050610b2b6000830184610a68565b92915050565b6000610b3b610b4c565b9050610b478282610c9d565b919050565b6000604051905090565b600067ffffffffffffffff821115610b7157610b70610cfd565b5b610b7a82610d2c565b9050602081019050919050565b6000819050602082019050919050565b600081519050919050565b600081519050919050565b6000602082019050919050565b600082825260208201905092915050565b600082825260208201905092915050565b600082825260208201905092915050565b6000610bf882610bff565b9050919050565b600073ffffffffffffffffffffffffffffffffffffffff82169050919050565b6000819050919050565b82818337600083830152505050565b60005b83811015610c56578082015181840152602081019050610c3b565b83811115610c65576000848401525b50505050565b60006002820490506001821680610c8357607f821691505b60208210811415610c9757610c96610cce565b5b50919050565b610ca682610d2c565b810181811067ffffffffffffffff82111715610cc557610cc4610cfd565b5b80604052505050565b7f4e487b7100000000000000000000000000000000000000000000000000000000600052602260045260246000fd5b7f4e487b7100000000000000000000000000000000000000000000000000000000600052604160045260246000fd5b6000601f19601f8301169050919050565b7f4f776e61626c653a206e6577206f776e657220697320746865207a65726f206160008201527f6464726573730000000000000000000000000000000000000000000000000000602082015250565b7f4f776e61626c653a2063616c6c6572206973206e6f7420746865206f776e6572600082015250565b610dbe81610bed565b8114610dc957600080fd5b50565b610dd581610c1f565b8114610de057600080fd5b5056fea2646970667358221220b1f1209ca51f977c88253941f2d5c474d2e527e7f8af17596f851621e12db0d764736f6c63430008030033",
  "immutableReferences": {},
  "source": "// SPDX-License-Identifier: MIT\npragma solidity ^0.8.2;\n\nimport \"@openzeppelin/contracts/access/Ownable.sol\"; \n\ncontract MosaicDAO is Ownable {\n  string[] public gallery; \n  uint256 public galleryWidth; \n\n  constructor(uint256 width) {\n    galleryWidth = width; \n  }\n\n  function getGalleryList() view external returns(string[] memory) {\n    return gallery; \n  }\n\n  function appendImage(string memory uri) external onlyOwner {\n    gallery.push(uri);\n  }\n  function removeImage(uint index) external onlyOwner { \n    require (index < gallery.length);\n    delete gallery[index];\n  }\n}",
  "sourcePath": "/Users/shy/Projects/muraldao/contracts/MosaicDAO.sol",
  "compiler": {
    "name": "solc",
    "version": "0.8.3+commit.8d00100c.Emscripten.clang"
  },
  "schemaVersion": "3.4.3",
  "updatedAt": "2021-11-21T00:39:17.762Z",
  "networkType": "ethereum",
  "devdoc": {
    "kind": "dev",
    "methods": {
      "owner()": {
        "details": "Returns the address of the current owner."
      },
      "renounceOwnership()": {
        "details": "Leaves the contract without owner. It will not be possible to call `onlyOwner` functions anymore. Can only be called by the current owner. NOTE: Renouncing ownership will leave the contract without an owner, thereby removing any functionality that is only available to the owner."
      },
      "transferOwnership(address)": {
        "details": "Transfers ownership of the contract to a new account (`newOwner`). Can only be called by the current owner."
      }
    },
    "version": 1
  },
  "userdoc": {
    "kind": "user",
    "methods": {},
    "version": 1
  }
}