{
  "contractName": "MosaicDAO",
  "abi": [
    {
      "inputs": [
        {
          "internalType": "uint256",
          "name": "width",
          "type": "uint256"
        }
      ],
      "stateMutability": "nonpayable",
      "type": "constructor"
    },
    {
      "anonymous": false,
      "inputs": [
        {
          "indexed": true,
          "internalType": "address",
          "name": "previousOwner",
          "type": "address"
        },
        {
          "indexed": true,
          "internalType": "address",
          "name": "newOwner",
          "type": "address"
        }
      ],
      "name": "OwnershipTransferred",
      "type": "event"
    },
    {
      "inputs": [],
      "name": "galleryWidth",
      "outputs": [
        {
          "internalType": "uint256",
          "name": "",
          "type": "uint256"
        }
      ],
      "stateMutability": "view",
      "type": "function",
      "constant": true
    },
    {
      "inputs": [],
      "name": "owner",
      "outputs": [
        {
          "internalType": "address",
          "name": "",
          "type": "address"
        }
      ],
      "stateMutability": "view",
      "type": "function",
      "constant": true
    },
    {
      "inputs": [],
      "name": "renounceOwnership",
      "outputs": [],
      "stateMutability": "nonpayable",
      "type": "function"
    },
    {
      "inputs": [
        {
          "internalType": "address",
          "name": "newOwner",
          "type": "address"
        }
      ],
      "name": "transferOwnership",
      "outputs": [],
      "stateMutability": "nonpayable",
      "type": "function"
    },
    {
      "inputs": [],
      "name": "getGalleryList",
      "outputs": [
        {
          "internalType": "string[]",
          "name": "",
          "type": "string[]"
        },
        {
          "internalType": "uint256[]",
          "name": "",
          "type": "uint256[]"
        }
      ],
      "stateMutability": "view",
      "type": "function",
      "constant": true
    },
    {
      "inputs": [
        {
          "internalType": "uint256",
          "name": "index",
          "type": "uint256"
        }
      ],
      "name": "getImage",
      "outputs": [
        {
          "internalType": "string",
          "name": "",
          "type": "string"
        }
      ],
      "stateMutability": "view",
      "type": "function",
      "constant": true
    },
    {
      "inputs": [
        {
          "internalType": "string",
          "name": "uri",
          "type": "string"
        }
      ],
      "name": "appendImage",
      "outputs": [],
      "stateMutability": "nonpayable",
      "type": "function"
    },
    {
      "inputs": [
        {
          "internalType": "uint256",
          "name": "index",
          "type": "uint256"
        }
      ],
      "name": "removeImage",
      "outputs": [],
      "stateMutability": "nonpayable",
      "type": "function"
    }
  ],
  "bytecode": "0x608060405260006003553480156200001657600080fd5b50604051620014f7380380620014f783398181016040528101906200003c91906200014d565b6200005c620000506200006a60201b60201c565b6200007260201b60201c565b80600481905550506200019d565b600033905090565b60008060009054906101000a900473ffffffffffffffffffffffffffffffffffffffff169050816000806101000a81548173ffffffffffffffffffffffffffffffffffffffff021916908373ffffffffffffffffffffffffffffffffffffffff1602179055508173ffffffffffffffffffffffffffffffffffffffff168173ffffffffffffffffffffffffffffffffffffffff167f8be0079c531659141344cd1fd0a4f28419497f9722a3daafe3b4186f6b6457e060405160405180910390a35050565b600081519050620001478162000183565b92915050565b6000602082840312156200016057600080fd5b6000620001708482850162000136565b91505092915050565b6000819050919050565b6200018e8162000179565b81146200019a57600080fd5b50565b61134a80620001ad6000396000f3fe608060405234801561001057600080fd5b50600436106100885760003560e01c80638da5cb5b1161005b5780638da5cb5b14610101578063ac48c8b51461011f578063f2fde38b1461013e578063fb2f79951461015a57610088565b80632607aafa1461008d578063715018a6146100bd578063781ab7f4146100c75780638b25261f146100e5575b600080fd5b6100a760048036038101906100a29190610bb1565b610176565b6040516100b49190610e56565b60405180910390f35b6100c561027e565b005b6100cf610306565b6040516100dc9190610ef8565b60405180910390f35b6100ff60048036038101906100fa9190610bb1565b61030c565b005b6101096104d3565b6040516101169190610e04565b60405180910390f35b6101276104fc565b604051610135929190610e1f565b60405180910390f35b61015860048036038101906101539190610b47565b610722565b005b610174600480360381019061016f9190610b70565b61081a565b005b6060600060016000848152602001908152602001600020805461019890611086565b905014156101db576040517f08c379a00000000000000000000000000000000000000000000000000000000081526004016101d290610eb8565b60405180910390fd5b6001600083815260200190815260200160002080546101f990611086565b80601f016020809104026020016040519081016040528092919081815260200182805461022590611086565b80156102725780601f1061024757610100808354040283529160200191610272565b820191906000526020600020905b81548152906001019060200180831161025557829003601f168201915b50505050509050919050565b610286610906565b73ffffffffffffffffffffffffffffffffffffffff166102a46104d3565b73ffffffffffffffffffffffffffffffffffffffff16146102fa576040517f08c379a00000000000000000000000000000000000000000000000000000000081526004016102f190610ed8565b60405180910390fd5b610304600061090e565b565b60045481565b610314610906565b73ffffffffffffffffffffffffffffffffffffffff166103326104d3565b73ffffffffffffffffffffffffffffffffffffffff1614610388576040517f08c379a000000000000000000000000000000000000000000000000000000000815260040161037f90610ed8565b60405180910390fd5b600354811080156103b9575060006001600083815260200190815260200160002080546103b490611086565b905014155b6103f8576040517f08c379a00000000000000000000000000000000000000000000000000000000081526004016103ef90610e78565b60405180910390fd5b60005b6002805490508110156104b0578160028281548110610443577f4e487b7100000000000000000000000000000000000000000000000000000000600052603260045260246000fd5b9060005260206000200154141561049d576002818154811061048e577f4e487b7100000000000000000000000000000000000000000000000000000000600052603260045260246000fd5b90600052602060002001600090555b80806104a8906110e9565b9150506103fb565b506001600082815260200190815260200160002060006104d091906109d2565b50565b60008060009054906101000a900473ffffffffffffffffffffffffffffffffffffffff16905090565b606080600060028054905067ffffffffffffffff811115610546577f4e487b7100000000000000000000000000000000000000000000000000000000600052604160045260246000fd5b60405190808252806020026020018201604052801561057957816020015b60608152602001906001900390816105645790505b50905060005b6002805490508110156106c35760016000600283815481106105ca577f4e487b7100000000000000000000000000000000000000000000000000000000600052603260045260246000fd5b9060005260206000200154815260200190815260200160002080546105ee90611086565b80601f016020809104026020016040519081016040528092919081815260200182805461061a90611086565b80156106675780601f1061063c57610100808354040283529160200191610667565b820191906000526020600020905b81548152906001019060200180831161064a57829003601f168201915b50505050508282815181106106a5577f4e487b7100000000000000000000000000000000000000000000000000000000600052603260045260246000fd5b602002602001018190525080806106bb906110e9565b91505061057f565b508060028080548060200260200160405190810160405280929190818152602001828054801561071257602002820191906000526020600020905b8154815260200190600101908083116106fe575b5050505050905092509250509091565b61072a610906565b73ffffffffffffffffffffffffffffffffffffffff166107486104d3565b73ffffffffffffffffffffffffffffffffffffffff161461079e576040517f08c379a000000000000000000000000000000000000000000000000000000000815260040161079590610ed8565b60405180910390fd5b600073ffffffffffffffffffffffffffffffffffffffff168173ffffffffffffffffffffffffffffffffffffffff16141561080e576040517f08c379a000000000000000000000000000000000000000000000000000000000815260040161080590610e98565b60405180910390fd5b6108178161090e565b50565b610822610906565b73ffffffffffffffffffffffffffffffffffffffff166108406104d3565b73ffffffffffffffffffffffffffffffffffffffff1614610896576040517f08c379a000000000000000000000000000000000000000000000000000000000815260040161088d90610ed8565b60405180910390fd5b600260035490806001815401808255809150506001900390600052602060002001600090919091909150558060016000600354815260200190815260200160002090805190602001906108ea929190610a12565b50600360008154809291906108fe906110e9565b919050555050565b600033905090565b60008060009054906101000a900473ffffffffffffffffffffffffffffffffffffffff169050816000806101000a81548173ffffffffffffffffffffffffffffffffffffffff021916908373ffffffffffffffffffffffffffffffffffffffff1602179055508173ffffffffffffffffffffffffffffffffffffffff168173ffffffffffffffffffffffffffffffffffffffff167f8be0079c531659141344cd1fd0a4f28419497f9722a3daafe3b4186f6b6457e060405160405180910390a35050565b5080546109de90611086565b6000825580601f106109f05750610a0f565b601f016020900490600052602060002090810190610a0e9190610a98565b5b50565b828054610a1e90611086565b90600052602060002090601f016020900481019282610a405760008555610a87565b82601f10610a5957805160ff1916838001178555610a87565b82800160010185558215610a87579182015b82811115610a86578251825591602001919060010190610a6b565b5b509050610a949190610a98565b5090565b5b80821115610ab1576000816000905550600101610a99565b5090565b6000610ac8610ac384610f38565b610f13565b905082815260208101848484011115610ae057600080fd5b610aeb848285611044565b509392505050565b600081359050610b02816112e6565b92915050565b600082601f830112610b1957600080fd5b8135610b29848260208601610ab5565b91505092915050565b600081359050610b41816112fd565b92915050565b600060208284031215610b5957600080fd5b6000610b6784828501610af3565b91505092915050565b600060208284031215610b8257600080fd5b600082013567ffffffffffffffff811115610b9c57600080fd5b610ba884828501610b08565b91505092915050565b600060208284031215610bc357600080fd5b6000610bd184828501610b32565b91505092915050565b6000610be68383610ce8565b905092915050565b6000610bfa8383610de6565b60208301905092915050565b610c0f81611008565b82525050565b6000610c2082610f89565b610c2a8185610fc4565b935083602082028501610c3c85610f69565b8060005b85811015610c785784840389528151610c598582610bda565b9450610c6483610faa565b925060208a01995050600181019050610c40565b50829750879550505050505092915050565b6000610c9582610f94565b610c9f8185610fd5565b9350610caa83610f79565b8060005b83811015610cdb578151610cc28882610bee565b9750610ccd83610fb7565b925050600181019050610cae565b5085935050505092915050565b6000610cf382610f9f565b610cfd8185610fe6565b9350610d0d818560208601611053565b610d16816111bf565b840191505092915050565b6000610d2c82610f9f565b610d368185610ff7565b9350610d46818560208601611053565b610d4f816111bf565b840191505092915050565b6000610d67602683610ff7565b9150610d72826111d0565b604082019050919050565b6000610d8a602683610ff7565b9150610d958261121f565b604082019050919050565b6000610dad602b83610ff7565b9150610db88261126e565b604082019050919050565b6000610dd0602083610ff7565b9150610ddb826112bd565b602082019050919050565b610def8161103a565b82525050565b610dfe8161103a565b82525050565b6000602082019050610e196000830184610c06565b92915050565b60006040820190508181036000830152610e398185610c15565b90508181036020830152610e4d8184610c8a565b90509392505050565b60006020820190508181036000830152610e708184610d21565b905092915050565b60006020820190508181036000830152610e9181610d5a565b9050919050565b60006020820190508181036000830152610eb181610d7d565b9050919050565b60006020820190508181036000830152610ed181610da0565b9050919050565b60006020820190508181036000830152610ef181610dc3565b9050919050565b6000602082019050610f0d6000830184610df5565b92915050565b6000610f1d610f2e565b9050610f2982826110b8565b919050565b6000604051905090565b600067ffffffffffffffff821115610f5357610f52611190565b5b610f5c826111bf565b9050602081019050919050565b6000819050602082019050919050565b6000819050602082019050919050565b600081519050919050565b600081519050919050565b600081519050919050565b6000602082019050919050565b6000602082019050919050565b600082825260208201905092915050565b600082825260208201905092915050565b600082825260208201905092915050565b600082825260208201905092915050565b60006110138261101a565b9050919050565b600073ffffffffffffffffffffffffffffffffffffffff82169050919050565b6000819050919050565b82818337600083830152505050565b60005b83811015611071578082015181840152602081019050611056565b83811115611080576000848401525b50505050565b6000600282049050600182168061109e57607f821691505b602082108114156110b2576110b1611161565b5b50919050565b6110c1826111bf565b810181811067ffffffffffffffff821117156110e0576110df611190565b5b80604052505050565b60006110f48261103a565b91507fffffffffffffffffffffffffffffffffffffffffffffffffffffffffffffffff82141561112757611126611132565b5b600182019050919050565b7f4e487b7100000000000000000000000000000000000000000000000000000000600052601160045260246000fd5b7f4e487b7100000000000000000000000000000000000000000000000000000000600052602260045260246000fd5b7f4e487b7100000000000000000000000000000000000000000000000000000000600052604160045260246000fd5b6000601f19601f8301169050919050565b7f4d6f7361696344414f3a2052656d6f76696e67206e6f6e2d6578697374656e7460008201527f20696d6167650000000000000000000000000000000000000000000000000000602082015250565b7f4f776e61626c653a206e6577206f776e657220697320746865207a65726f206160008201527f6464726573730000000000000000000000000000000000000000000000000000602082015250565b7f4d6f7361696344414f3a20476976656e20696d61676520696e64657820646f6560008201527f73206e6f74206578697374000000000000000000000000000000000000000000602082015250565b7f4f776e61626c653a2063616c6c6572206973206e6f7420746865206f776e6572600082015250565b6112ef81611008565b81146112fa57600080fd5b50565b6113068161103a565b811461131157600080fd5b5056fea2646970667358221220740dd09f66673508cf22d999fbcb8a3d0b23e771e194a42de30e9e87568de2a564736f6c63430008030033",
  "immutableReferences": {},
  "source": "// SPDX-License-Identifier: MIT\r\npragma solidity ^0.8.2;\r\n\r\nimport \"@openzeppelin/contracts/access/Ownable.sol\"; \r\n\r\ncontract MosaicDAO is Ownable {\r\n  mapping(uint256=>string) private _gallery; \r\n  uint256[] private _galleryIndices; \r\n  uint256 private counter = 0;\r\n\r\n  uint256 public galleryWidth; \r\n\r\n  constructor(uint256 width) {\r\n    galleryWidth = width; \r\n  }\r\n\r\n  function getGalleryList() view external returns(string[] memory, uint256[] memory) {\r\n    string[] memory gallery = new string[](_galleryIndices.length);\r\n    for (uint i = 0; i < _galleryIndices.length; i++) gallery[i] = _gallery[_galleryIndices[i]];\r\n    return (gallery, _galleryIndices); \r\n  }\r\n\r\n  function getImage(uint index) view external returns(string memory) {\r\n    require(bytes(_gallery[index]).length != 0, \"MosaicDAO: Given image index does not exist\");\r\n    return _gallery[index];\r\n  }\r\n\r\n  function appendImage(string memory uri) external onlyOwner {\r\n    _galleryIndices.push(counter);\r\n    _gallery[counter] = uri;\r\n    counter++;\r\n  }\r\n\r\n  function removeImage(uint index) external onlyOwner { \r\n    require (index < counter && bytes(_gallery[index]).length != 0, \"MosaicDAO: Removing non-existent image\");\r\n    for (uint i = 0; i < _galleryIndices.length; i++) {\r\n      if (_galleryIndices[i] == index) delete _galleryIndices[i];\r\n    }\r\n    delete _gallery[index];\r\n  }\r\n}",
  "sourcePath": "C:/Users/Kuan/Documents/GitHub/mosaicdao/contracts/MosaicDAO.sol",
  "compiler": {
    "name": "solc",
    "version": "0.8.3+commit.8d00100c.Emscripten.clang"
  },
  "schemaVersion": "3.3.4",
  "updatedAt": "2021-11-21T20:34:08.106Z",
  "networkType": "ethereum",
  "devdoc": {
    "kind": "dev",
    "methods": {
      "owner()": {
        "details": "Returns the address of the current owner."
      },
      "renounceOwnership()": {
        "details": "Leaves the contract without owner. It will not be possible to call `onlyOwner` functions anymore. Can only be called by the current owner. NOTE: Renouncing ownership will leave the contract without an owner, thereby removing any functionality that is only available to the owner."
      },
      "transferOwnership(address)": {
        "details": "Transfers ownership of the contract to a new account (`newOwner`). Can only be called by the current owner."
      }
    },
    "version": 1
  },
  "userdoc": {
    "kind": "user",
    "methods": {},
    "version": 1
  }
}