{
  "contractName": "MosaicDAO",
  "abi": [
    {
      "anonymous": false,
      "inputs": [
        {
          "indexed": true,
          "internalType": "address",
          "name": "previousOwner",
          "type": "address"
        },
        {
          "indexed": true,
          "internalType": "address",
          "name": "newOwner",
          "type": "address"
        }
      ],
      "name": "OwnershipTransferred",
      "type": "event"
    },
    {
      "inputs": [
        {
          "internalType": "uint256",
          "name": "",
          "type": "uint256"
        }
      ],
      "name": "gallery",
      "outputs": [
        {
          "internalType": "string",
          "name": "",
          "type": "string"
        }
      ],
      "stateMutability": "view",
      "type": "function"
    },
    {
      "inputs": [],
      "name": "owner",
      "outputs": [
        {
          "internalType": "address",
          "name": "",
          "type": "address"
        }
      ],
      "stateMutability": "view",
      "type": "function"
    },
    {
      "inputs": [],
      "name": "renounceOwnership",
      "outputs": [],
      "stateMutability": "nonpayable",
      "type": "function"
    },
    {
      "inputs": [
        {
          "internalType": "address",
          "name": "newOwner",
          "type": "address"
        }
      ],
      "name": "transferOwnership",
      "outputs": [],
      "stateMutability": "nonpayable",
      "type": "function"
    },
    {
      "inputs": [
        {
          "internalType": "string",
          "name": "uri",
          "type": "string"
        }
      ],
      "name": "appendImage",
      "outputs": [],
      "stateMutability": "nonpayable",
      "type": "function"
    },
    {
      "inputs": [
        {
          "internalType": "uint256",
          "name": "index",
          "type": "uint256"
        }
      ],
      "name": "removeImage",
      "outputs": [],
      "stateMutability": "nonpayable",
      "type": "function"
    }
  ],
  "bytecode": "0x608060405234801561001057600080fd5b5061002d61002261003260201b60201c565b61003a60201b60201c565b6100fe565b600033905090565b60008060009054906101000a900473ffffffffffffffffffffffffffffffffffffffff169050816000806101000a81548173ffffffffffffffffffffffffffffffffffffffff021916908373ffffffffffffffffffffffffffffffffffffffff1602179055508173ffffffffffffffffffffffffffffffffffffffff168173ffffffffffffffffffffffffffffffffffffffff167f8be0079c531659141344cd1fd0a4f28419497f9722a3daafe3b4186f6b6457e060405160405180910390a35050565b610a778061010d6000396000f3fe608060405234801561001057600080fd5b50600436106100625760003560e01c8063715018a6146100675780638b25261f146100715780638da5cb5b1461008d578063db978ca5146100ab578063f2fde38b146100db578063fb2f7995146100f7575b600080fd5b61006f610113565b005b61008b600480360381019061008691906106a5565b61019b565b005b6100956101ee565b6040516100a2919061075c565b60405180910390f35b6100c560048036038101906100c091906106a5565b610217565b6040516100d29190610777565b60405180910390f35b6100f560048036038101906100f0919061063b565b6102c3565b005b610111600480360381019061010c9190610664565b6103bb565b005b61011b6103fa565b73ffffffffffffffffffffffffffffffffffffffff166101396101ee565b73ffffffffffffffffffffffffffffffffffffffff161461018f576040517f08c379a0000000000000000000000000000000000000000000000000000000008152600401610186906107b9565b60405180910390fd5b6101996000610402565b565b600181815481106101d5577f4e487b7100000000000000000000000000000000000000000000000000000000600052603260045260246000fd5b9060005260206000200160006101eb91906104c6565b50565b60008060009054906101000a900473ffffffffffffffffffffffffffffffffffffffff16905090565b6001818154811061022757600080fd5b906000526020600020016000915090508054610242906108c9565b80601f016020809104026020016040519081016040528092919081815260200182805461026e906108c9565b80156102bb5780601f10610290576101008083540402835291602001916102bb565b820191906000526020600020905b81548152906001019060200180831161029e57829003601f168201915b505050505081565b6102cb6103fa565b73ffffffffffffffffffffffffffffffffffffffff166102e96101ee565b73ffffffffffffffffffffffffffffffffffffffff161461033f576040517f08c379a0000000000000000000000000000000000000000000000000000000008152600401610336906107b9565b60405180910390fd5b600073ffffffffffffffffffffffffffffffffffffffff168173ffffffffffffffffffffffffffffffffffffffff1614156103af576040517f08c379a00000000000000000000000000000000000000000000000000000000081526004016103a690610799565b60405180910390fd5b6103b881610402565b50565b6001819080600181540180825580915050600190039060005260206000200160009091909190915090805190602001906103f6929190610506565b5050565b600033905090565b60008060009054906101000a900473ffffffffffffffffffffffffffffffffffffffff169050816000806101000a81548173ffffffffffffffffffffffffffffffffffffffff021916908373ffffffffffffffffffffffffffffffffffffffff1602179055508173ffffffffffffffffffffffffffffffffffffffff168173ffffffffffffffffffffffffffffffffffffffff167f8be0079c531659141344cd1fd0a4f28419497f9722a3daafe3b4186f6b6457e060405160405180910390a35050565b5080546104d2906108c9565b6000825580601f106104e45750610503565b601f016020900490600052602060002090810190610502919061058c565b5b50565b828054610512906108c9565b90600052602060002090601f016020900481019282610534576000855561057b565b82601f1061054d57805160ff191683800117855561057b565b8280016001018555821561057b579182015b8281111561057a57825182559160200191906001019061055f565b5b509050610588919061058c565b5090565b5b808211156105a557600081600090555060010161058d565b5090565b60006105bc6105b7846107fe565b6107d9565b9050828152602081018484840111156105d457600080fd5b6105df848285610887565b509392505050565b6000813590506105f681610a13565b92915050565b600082601f83011261060d57600080fd5b813561061d8482602086016105a9565b91505092915050565b60008135905061063581610a2a565b92915050565b60006020828403121561064d57600080fd5b600061065b848285016105e7565b91505092915050565b60006020828403121561067657600080fd5b600082013567ffffffffffffffff81111561069057600080fd5b61069c848285016105fc565b91505092915050565b6000602082840312156106b757600080fd5b60006106c584828501610626565b91505092915050565b6106d78161084b565b82525050565b60006106e88261082f565b6106f2818561083a565b9350610702818560208601610896565b61070b8161098a565b840191505092915050565b600061072360268361083a565b915061072e8261099b565b604082019050919050565b600061074660208361083a565b9150610751826109ea565b602082019050919050565b600060208201905061077160008301846106ce565b92915050565b6000602082019050818103600083015261079181846106dd565b905092915050565b600060208201905081810360008301526107b281610716565b9050919050565b600060208201905081810360008301526107d281610739565b9050919050565b60006107e36107f4565b90506107ef82826108fb565b919050565b6000604051905090565b600067ffffffffffffffff8211156108195761081861095b565b5b6108228261098a565b9050602081019050919050565b600081519050919050565b600082825260208201905092915050565b60006108568261085d565b9050919050565b600073ffffffffffffffffffffffffffffffffffffffff82169050919050565b6000819050919050565b82818337600083830152505050565b60005b838110156108b4578082015181840152602081019050610899565b838111156108c3576000848401525b50505050565b600060028204905060018216806108e157607f821691505b602082108114156108f5576108f461092c565b5b50919050565b6109048261098a565b810181811067ffffffffffffffff821117156109235761092261095b565b5b80604052505050565b7f4e487b7100000000000000000000000000000000000000000000000000000000600052602260045260246000fd5b7f4e487b7100000000000000000000000000000000000000000000000000000000600052604160045260246000fd5b6000601f19601f8301169050919050565b7f4f776e61626c653a206e6577206f776e657220697320746865207a65726f206160008201527f6464726573730000000000000000000000000000000000000000000000000000602082015250565b7f4f776e61626c653a2063616c6c6572206973206e6f7420746865206f776e6572600082015250565b610a1c8161084b565b8114610a2757600080fd5b50565b610a338161087d565b8114610a3e57600080fd5b5056fea2646970667358221220f8af2fdebccb38051515497cf5ef3b1a82ce58db790d18b79e6e54dcf5ba479064736f6c63430008030033",
  "immutableReferences": {},
  "source": "// SPDX-License-Identifier: MIT\npragma solidity ^0.8.2;\n\nimport \"@openzeppelin/contracts/access/Ownable.sol\"; \n\ncontract MosaicDAO is Ownable {\n  string[] public gallery; \n\n  function appendImage(string memory uri) external {\n    gallery.push(uri);\n  }\n  function removeImage(uint index) external { \n    delete gallery[index];\n  }\n}",
  "sourcePath": "/Users/shy/Projects/muraldao/contracts/MosaicDAO.sol",
  "compiler": {
    "name": "solc",
    "version": "0.8.3+commit.8d00100c.Emscripten.clang"
  },
  "schemaVersion": "3.4.3",
  "updatedAt": "2021-11-19T22:39:49.602Z",
  "devdoc": {
    "kind": "dev",
    "methods": {
      "owner()": {
        "details": "Returns the address of the current owner."
      },
      "renounceOwnership()": {
        "details": "Leaves the contract without owner. It will not be possible to call `onlyOwner` functions anymore. Can only be called by the current owner. NOTE: Renouncing ownership will leave the contract without an owner, thereby removing any functionality that is only available to the owner."
      },
      "transferOwnership(address)": {
        "details": "Transfers ownership of the contract to a new account (`newOwner`). Can only be called by the current owner."
      }
    },
    "version": 1
  },
  "userdoc": {
    "kind": "user",
    "methods": {},
    "version": 1
  }
}