{
  "contractName": "MosaicGovernor",
  "abi": [
    {
      "inputs": [
        {
          "internalType": "contract ERC20Votes",
          "name": "_token",
          "type": "address"
        }
      ],
      "stateMutability": "nonpayable",
      "type": "constructor"
    },
    {
      "anonymous": false,
      "inputs": [
        {
          "indexed": false,
          "internalType": "uint256",
          "name": "proposalId",
          "type": "uint256"
        }
      ],
      "name": "ProposalCanceled",
      "type": "event"
    },
    {
      "anonymous": false,
      "inputs": [
        {
          "indexed": false,
          "internalType": "uint256",
          "name": "proposalId",
          "type": "uint256"
        },
        {
          "indexed": false,
          "internalType": "address",
          "name": "proposer",
          "type": "address"
        },
        {
          "indexed": false,
          "internalType": "address[]",
          "name": "targets",
          "type": "address[]"
        },
        {
          "indexed": false,
          "internalType": "uint256[]",
          "name": "values",
          "type": "uint256[]"
        },
        {
          "indexed": false,
          "internalType": "string[]",
          "name": "signatures",
          "type": "string[]"
        },
        {
          "indexed": false,
          "internalType": "bytes[]",
          "name": "calldatas",
          "type": "bytes[]"
        },
        {
          "indexed": false,
          "internalType": "uint256",
          "name": "startBlock",
          "type": "uint256"
        },
        {
          "indexed": false,
          "internalType": "uint256",
          "name": "endBlock",
          "type": "uint256"
        },
        {
          "indexed": false,
          "internalType": "string",
          "name": "description",
          "type": "string"
        }
      ],
      "name": "ProposalCreated",
      "type": "event"
    },
    {
      "anonymous": false,
      "inputs": [
        {
          "indexed": false,
          "internalType": "uint256",
          "name": "proposalId",
          "type": "uint256"
        }
      ],
      "name": "ProposalExecuted",
      "type": "event"
    },
    {
      "anonymous": false,
      "inputs": [
        {
          "indexed": false,
          "internalType": "uint256",
          "name": "oldQuorumNumerator",
          "type": "uint256"
        },
        {
          "indexed": false,
          "internalType": "uint256",
          "name": "newQuorumNumerator",
          "type": "uint256"
        }
      ],
      "name": "QuorumNumeratorUpdated",
      "type": "event"
    },
    {
      "anonymous": false,
      "inputs": [
        {
          "indexed": true,
          "internalType": "address",
          "name": "voter",
          "type": "address"
        },
        {
          "indexed": false,
          "internalType": "uint256",
          "name": "proposalId",
          "type": "uint256"
        },
        {
          "indexed": false,
          "internalType": "uint8",
          "name": "support",
          "type": "uint8"
        },
        {
          "indexed": false,
          "internalType": "uint256",
          "name": "weight",
          "type": "uint256"
        },
        {
          "indexed": false,
          "internalType": "string",
          "name": "reason",
          "type": "string"
        }
      ],
      "name": "VoteCast",
      "type": "event"
    },
    {
      "inputs": [],
      "name": "BALLOT_TYPEHASH",
      "outputs": [
        {
          "internalType": "bytes32",
          "name": "",
          "type": "bytes32"
        }
      ],
      "stateMutability": "view",
      "type": "function"
    },
    {
      "inputs": [],
      "name": "COUNTING_MODE",
      "outputs": [
        {
          "internalType": "string",
          "name": "",
          "type": "string"
        }
      ],
      "stateMutability": "pure",
      "type": "function"
    },
    {
      "inputs": [
        {
          "internalType": "uint256",
          "name": "proposalId",
          "type": "uint256"
        },
        {
          "internalType": "uint8",
          "name": "support",
          "type": "uint8"
        }
      ],
      "name": "castVote",
      "outputs": [
        {
          "internalType": "uint256",
          "name": "",
          "type": "uint256"
        }
      ],
      "stateMutability": "nonpayable",
      "type": "function"
    },
    {
      "inputs": [
        {
          "internalType": "uint256",
          "name": "proposalId",
          "type": "uint256"
        },
        {
          "internalType": "uint8",
          "name": "support",
          "type": "uint8"
        },
        {
          "internalType": "uint8",
          "name": "v",
          "type": "uint8"
        },
        {
          "internalType": "bytes32",
          "name": "r",
          "type": "bytes32"
        },
        {
          "internalType": "bytes32",
          "name": "s",
          "type": "bytes32"
        }
      ],
      "name": "castVoteBySig",
      "outputs": [
        {
          "internalType": "uint256",
          "name": "",
          "type": "uint256"
        }
      ],
      "stateMutability": "nonpayable",
      "type": "function"
    },
    {
      "inputs": [
        {
          "internalType": "uint256",
          "name": "proposalId",
          "type": "uint256"
        },
        {
          "internalType": "uint8",
          "name": "support",
          "type": "uint8"
        },
        {
          "internalType": "string",
          "name": "reason",
          "type": "string"
        }
      ],
      "name": "castVoteWithReason",
      "outputs": [
        {
          "internalType": "uint256",
          "name": "",
          "type": "uint256"
        }
      ],
      "stateMutability": "nonpayable",
      "type": "function"
    },
    {
      "inputs": [
        {
          "internalType": "address[]",
          "name": "targets",
          "type": "address[]"
        },
        {
          "internalType": "uint256[]",
          "name": "values",
          "type": "uint256[]"
        },
        {
          "internalType": "bytes[]",
          "name": "calldatas",
          "type": "bytes[]"
        },
        {
          "internalType": "bytes32",
          "name": "descriptionHash",
          "type": "bytes32"
        }
      ],
      "name": "execute",
      "outputs": [
        {
          "internalType": "uint256",
          "name": "",
          "type": "uint256"
        }
      ],
      "stateMutability": "payable",
      "type": "function"
    },
    {
      "inputs": [
        {
          "internalType": "uint256",
          "name": "proposalId",
          "type": "uint256"
        },
        {
          "internalType": "address",
          "name": "account",
          "type": "address"
        }
      ],
      "name": "hasVoted",
      "outputs": [
        {
          "internalType": "bool",
          "name": "",
          "type": "bool"
        }
      ],
      "stateMutability": "view",
      "type": "function"
    },
    {
      "inputs": [
        {
          "internalType": "address[]",
          "name": "targets",
          "type": "address[]"
        },
        {
          "internalType": "uint256[]",
          "name": "values",
          "type": "uint256[]"
        },
        {
          "internalType": "bytes[]",
          "name": "calldatas",
          "type": "bytes[]"
        },
        {
          "internalType": "bytes32",
          "name": "descriptionHash",
          "type": "bytes32"
        }
      ],
      "name": "hashProposal",
      "outputs": [
        {
          "internalType": "uint256",
          "name": "",
          "type": "uint256"
        }
      ],
      "stateMutability": "pure",
      "type": "function"
    },
    {
      "inputs": [],
      "name": "name",
      "outputs": [
        {
          "internalType": "string",
          "name": "",
          "type": "string"
        }
      ],
      "stateMutability": "view",
      "type": "function"
    },
    {
      "inputs": [
        {
          "internalType": "uint256",
          "name": "proposalId",
          "type": "uint256"
        }
      ],
      "name": "proposalDeadline",
      "outputs": [
        {
          "internalType": "uint256",
          "name": "",
          "type": "uint256"
        }
      ],
      "stateMutability": "view",
      "type": "function"
    },
    {
      "inputs": [
        {
          "internalType": "uint256",
          "name": "proposalId",
          "type": "uint256"
        }
      ],
      "name": "proposalSnapshot",
      "outputs": [
        {
          "internalType": "uint256",
          "name": "",
          "type": "uint256"
        }
      ],
      "stateMutability": "view",
      "type": "function"
    },
    {
      "inputs": [
        {
          "internalType": "uint256",
          "name": "proposalId",
          "type": "uint256"
        }
      ],
      "name": "proposalVotes",
      "outputs": [
        {
          "internalType": "uint256",
          "name": "againstVotes",
          "type": "uint256"
        },
        {
          "internalType": "uint256",
          "name": "forVotes",
          "type": "uint256"
        },
        {
          "internalType": "uint256",
          "name": "abstainVotes",
          "type": "uint256"
        }
      ],
      "stateMutability": "view",
      "type": "function"
    },
    {
      "inputs": [],
      "name": "quorumDenominator",
      "outputs": [
        {
          "internalType": "uint256",
          "name": "",
          "type": "uint256"
        }
      ],
      "stateMutability": "view",
      "type": "function"
    },
    {
      "inputs": [],
      "name": "quorumNumerator",
      "outputs": [
        {
          "internalType": "uint256",
          "name": "",
          "type": "uint256"
        }
      ],
      "stateMutability": "view",
      "type": "function"
    },
    {
      "inputs": [
        {
          "internalType": "uint256",
          "name": "proposalId",
          "type": "uint256"
        }
      ],
      "name": "state",
      "outputs": [
        {
          "internalType": "enum IGovernor.ProposalState",
          "name": "",
          "type": "uint8"
        }
      ],
      "stateMutability": "view",
      "type": "function"
    },
    {
      "inputs": [
        {
          "internalType": "bytes4",
          "name": "interfaceId",
          "type": "bytes4"
        }
      ],
      "name": "supportsInterface",
      "outputs": [
        {
          "internalType": "bool",
          "name": "",
          "type": "bool"
        }
      ],
      "stateMutability": "view",
      "type": "function"
    },
    {
      "inputs": [],
      "name": "token",
      "outputs": [
        {
          "internalType": "contract ERC20Votes",
          "name": "",
          "type": "address"
        }
      ],
      "stateMutability": "view",
      "type": "function"
    },
    {
      "inputs": [
        {
          "internalType": "uint256",
          "name": "newQuorumNumerator",
          "type": "uint256"
        }
      ],
      "name": "updateQuorumNumerator",
      "outputs": [],
      "stateMutability": "nonpayable",
      "type": "function"
    },
    {
      "inputs": [],
      "name": "version",
      "outputs": [
        {
          "internalType": "string",
          "name": "",
          "type": "string"
        }
      ],
      "stateMutability": "view",
      "type": "function"
    },
    {
      "inputs": [],
      "name": "votingDelay",
      "outputs": [
        {
          "internalType": "uint256",
          "name": "",
          "type": "uint256"
        }
      ],
      "stateMutability": "pure",
      "type": "function"
    },
    {
      "inputs": [],
      "name": "votingPeriod",
      "outputs": [
        {
          "internalType": "uint256",
          "name": "",
          "type": "uint256"
        }
      ],
      "stateMutability": "pure",
      "type": "function"
    },
    {
      "inputs": [],
      "name": "proposalThreshold",
      "outputs": [
        {
          "internalType": "uint256",
          "name": "",
          "type": "uint256"
        }
      ],
      "stateMutability": "pure",
      "type": "function"
    },
    {
      "inputs": [
        {
          "internalType": "uint256",
          "name": "blockNumber",
          "type": "uint256"
        }
      ],
      "name": "quorum",
      "outputs": [
        {
          "internalType": "uint256",
          "name": "",
          "type": "uint256"
        }
      ],
      "stateMutability": "view",
      "type": "function"
    },
    {
      "inputs": [
        {
          "internalType": "address",
          "name": "account",
          "type": "address"
        },
        {
          "internalType": "uint256",
          "name": "blockNumber",
          "type": "uint256"
        }
      ],
      "name": "getVotes",
      "outputs": [
        {
          "internalType": "uint256",
          "name": "",
          "type": "uint256"
        }
      ],
      "stateMutability": "view",
      "type": "function"
    },
    {
      "inputs": [
        {
          "internalType": "address[]",
          "name": "targets",
          "type": "address[]"
        },
        {
          "internalType": "uint256[]",
          "name": "values",
          "type": "uint256[]"
        },
        {
          "internalType": "bytes[]",
          "name": "calldatas",
          "type": "bytes[]"
        },
        {
          "internalType": "string",
          "name": "description",
          "type": "string"
        }
      ],
      "name": "propose",
      "outputs": [
        {
          "internalType": "uint256",
          "name": "",
          "type": "uint256"
        }
      ],
      "stateMutability": "nonpayable",
      "type": "function"
    }
  ],
  "bytecode": "0x6101406040523480156200001257600080fd5b506040516200479f3803806200479f833981810160405281019062000038919062000356565b600a816040518060400160405280601381526020017f4d6f73616963476f7665726e6f72416c7068610000000000000000000000000081525080620000826200016b60201b60201c565b60008280519060200120905060008280519060200120905060007f8b73c3c69bb8fe3d512ecc4cf759cc79239f7b179b0ffacaa9a75d522b39400f90508260c081815250508160e081815250504660a08181525050620000ea818484620001a860201b60201c565b6080818152505080610100818152505050505050508060009080519060200190620001179291906200028f565b50508073ffffffffffffffffffffffffffffffffffffffff166101208173ffffffffffffffffffffffffffffffffffffffff1660601b81525050506200016381620001e460201b60201c565b5050620005e9565b60606040518060400160405280600181526020017f3100000000000000000000000000000000000000000000000000000000000000815250905090565b60008383834630604051602001620001c5959493929190620003dc565b6040516020818303038152906040528051906020012090509392505050565b620001f46200028660201b60201c565b81111562000239576040517f08c379a0000000000000000000000000000000000000000000000000000000008152600401620002309062000439565b60405180910390fd5b60006003549050816003819055507f0553476bf02ef2726e8ce5ced78d63e26e602e4a2257b1f559418e24b463399781836040516200027a9291906200045b565b60405180910390a15050565b60006064905090565b8280546200029d90620004f5565b90600052602060002090601f016020900481019282620002c157600085556200030d565b82601f10620002dc57805160ff19168380011785556200030d565b828001600101855582156200030d579182015b828111156200030c578251825591602001919060010190620002ef565b5b5090506200031c919062000320565b5090565b5b808211156200033b57600081600090555060010162000321565b5090565b6000815190506200035081620005cf565b92915050565b6000602082840312156200036957600080fd5b600062000379848285016200033f565b91505092915050565b6200038d8162000499565b82525050565b6200039e81620004ad565b82525050565b6000620003b360438362000488565b9150620003c0826200055a565b606082019050919050565b620003d681620004eb565b82525050565b600060a082019050620003f3600083018862000393565b62000402602083018762000393565b62000411604083018662000393565b620004206060830185620003cb565b6200042f608083018462000382565b9695505050505050565b600060208201905081810360008301526200045481620003a4565b9050919050565b6000604082019050620004726000830185620003cb565b620004816020830184620003cb565b9392505050565b600082825260208201905092915050565b6000620004a682620004cb565b9050919050565b6000819050919050565b6000620004c48262000499565b9050919050565b600073ffffffffffffffffffffffffffffffffffffffff82169050919050565b6000819050919050565b600060028204905060018216806200050e57607f821691505b602082108114156200052557620005246200052b565b5b50919050565b7f4e487b7100000000000000000000000000000000000000000000000000000000600052602260045260246000fd5b7f476f7665726e6f72566f74657351756f72756d4672616374696f6e3a2071756f60008201527f72756d4e756d657261746f72206f7665722071756f72756d44656e6f6d696e6160208201527f746f720000000000000000000000000000000000000000000000000000000000604082015250565b620005da81620004b7565b8114620005e657600080fd5b50565b60805160a05160c05160e051610100516101205160601c6141556200064a60003960008181610fa50152818161157d0152611642015260006117c201526000611804015260006117e30152600061176f0152600061179701526141556000f3fe6080604052600436106101665760003560e01c806356781388116100d1578063c01f9e371161008a578063deaaa7cc11610064578063deaaa7cc146105bd578063eb9019d4146105e8578063f8ce560a14610625578063fc0c546a1461066257610166565b8063c01f9e3714610518578063c59057e414610555578063dd4e2ba51461059257610166565b806356781388146103e05780637b3c71d31461041d5780637d5e81e21461045a57806397c3d33414610497578063a7713a70146104c2578063b58131b0146104ed57610166565b80633932abb1116101235780633932abb1146102945780633bccf4fd146102bf5780633e4f49e6146102fc5780634385963214610339578063544ffc9c1461037657806354fd4d50146103b557610166565b806301ffc9a71461016b57806302a251a3146101a857806306f3f9e6146101d357806306fdde03146101fc5780632656227d146102275780632d63f69314610257575b600080fd5b34801561017757600080fd5b50610192600480360381019061018d91906127e6565b61068d565b60405161019f9190613067565b60405180910390f35b3480156101b457600080fd5b506101bd610707565b6040516101ca91906133c4565b60405180910390f35b3480156101df57600080fd5b506101fa60048036038101906101f5919061280f565b610711565b005b34801561020857600080fd5b50610211610799565b60405161021e91906131a2565b60405180910390f35b610241600480360381019061023c9190612678565b61082b565b60405161024e91906133c4565b60405180910390f35b34801561026357600080fd5b5061027e6004803603810190610279919061280f565b6109f6565b60405161028b91906133c4565b60405180910390f35b3480156102a057600080fd5b506102a9610a64565b6040516102b691906133c4565b60405180910390f35b3480156102cb57600080fd5b506102e660048036038101906102e19190612945565b610a6d565b6040516102f391906133c4565b60405180910390f35b34801561030857600080fd5b50610323600480360381019061031e919061280f565b610af7565b6040516103309190613187565b60405180910390f35b34801561034557600080fd5b50610360600480360381019061035b9190612861565b610cbe565b60405161036d9190613067565b60405180910390f35b34801561038257600080fd5b5061039d6004803603810190610398919061280f565b610d29565b6040516103ac939291906134b8565b60405180910390f35b3480156103c157600080fd5b506103ca610d61565b6040516103d791906131a2565b60405180910390f35b3480156103ec57600080fd5b506104076004803603810190610402919061289d565b610d9e565b60405161041491906133c4565b60405180910390f35b34801561042957600080fd5b50610444600480360381019061043f91906128d9565b610dcf565b60405161045191906133c4565b60405180910390f35b34801561046657600080fd5b50610481600480360381019061047c9190612723565b610e37565b60405161048e91906133c4565b60405180910390f35b3480156104a357600080fd5b506104ac610e4f565b6040516104b991906133c4565b60405180910390f35b3480156104ce57600080fd5b506104d7610e58565b6040516104e491906133c4565b60405180910390f35b3480156104f957600080fd5b50610502610e62565b60405161050f91906133c4565b60405180910390f35b34801561052457600080fd5b5061053f600480360381019061053a919061280f565b610e72565b60405161054c91906133c4565b60405180910390f35b34801561056157600080fd5b5061057c60048036038101906105779190612678565b610ee0565b60405161058991906133c4565b60405180910390f35b34801561059e57600080fd5b506105a7610f1c565b6040516105b491906131a2565b60405180910390f35b3480156105c957600080fd5b506105d2610f59565b6040516105df9190613082565b60405180910390f35b3480156105f457600080fd5b5061060f600480360381019061060a919061263c565b610f7d565b60405161061c91906133c4565b60405180910390f35b34801561063157600080fd5b5061064c6004803603810190610647919061280f565b610f91565b60405161065991906133c4565b60405180910390f35b34801561066e57600080fd5b50610677610fa3565b604051610684919061316c565b60405180910390f35b60007fbf26d897000000000000000000000000000000000000000000000000000000007bffffffffffffffffffffffffffffffffffffffffffffffffffffffff1916827bffffffffffffffffffffffffffffffffffffffffffffffffffffffff1916148061070057506106ff82610fc7565b5b9050919050565b600061b2fa905090565b610719611031565b73ffffffffffffffffffffffffffffffffffffffff16610737611039565b73ffffffffffffffffffffffffffffffffffffffff161461078d576040517f08c379a0000000000000000000000000000000000000000000000000000000008152600401610784906131e4565b60405180910390fd5b61079681611041565b50565b6060600080546107a890613a18565b80601f01602080910402602001604051908101604052809291908181526020018280546107d490613a18565b80156108215780601f106107f657610100808354040283529160200191610821565b820191906000526020600020905b81548152906001019060200180831161080457829003601f168201915b5050505050905090565b60008061083a86868686610ee0565b9050600061084782610af7565b905060046007811115610883577f4e487b7100000000000000000000000000000000000000000000000000000000600052602160045260246000fd5b8160078111156108bc577f4e487b7100000000000000000000000000000000000000000000000000000000600052602160045260246000fd5b14806109385750600560078111156108fd577f4e487b7100000000000000000000000000000000000000000000000000000000600052602160045260246000fd5b816007811115610936577f4e487b7100000000000000000000000000000000000000000000000000000000600052602160045260246000fd5b145b610977576040517f08c379a000000000000000000000000000000000000000000000000000000000815260040161096e90613344565b60405180910390fd5b600180600084815260200190815260200160002060020160006101000a81548160ff0219169083151502179055507f712ae1383f79ac853f8d882153778e0260ef8f03b504e2866e0593e04d2b291f826040516109d491906133c4565b60405180910390a16109e982888888886110d6565b8192505050949350505050565b6000610a53600160008481526020019081526020016000206000016040518060200160405290816000820160009054906101000a900467ffffffffffffffff1667ffffffffffffffff1667ffffffffffffffff1681525050611257565b67ffffffffffffffff169050919050565b60006001905090565b600080610ace610ac67f150214d74d59b7d1e90c73fc22ef3d991dd0a76b046543d4d80ab92d2a50328f8989604051602001610aab939291906130f0565b60405160208183030381529060405280519060200120611265565b86868661127f565b9050610aeb878288604051806020016040528060008152506112aa565b91505095945050505050565b60008060016000848152602001908152602001600020604051806080016040529081600082016040518060200160405290816000820160009054906101000a900467ffffffffffffffff1667ffffffffffffffff1667ffffffffffffffff16815250508152602001600182016040518060200160405290816000820160009054906101000a900467ffffffffffffffff1667ffffffffffffffff1667ffffffffffffffff168152505081526020016002820160009054906101000a900460ff161515151581526020016002820160019054906101000a900460ff1615151515815250509050806040015115610bf0576007915050610cb9565b806060015115610c04576002915050610cb9565b610c11816000015161144a565b15610c20576000915050610cb9565b610c2d816020015161144a565b15610c3c576001915050610cb9565b610c498160200151611464565b15610c7e57610c5783611490565b8015610c685750610c67836114d7565b5b610c73576003610c76565b60045b915050610cb9565b6040517f08c379a0000000000000000000000000000000000000000000000000000000008152600401610cb090613364565b60405180910390fd5b919050565b60006002600084815260200190815260200160002060030160008373ffffffffffffffffffffffffffffffffffffffff1673ffffffffffffffffffffffffffffffffffffffff16815260200190815260200160002060009054906101000a900460ff16905092915050565b600080600080600260008681526020019081526020016000209050806000015481600101548260020154935093509350509193909250565b60606040518060400160405280600181526020017f3100000000000000000000000000000000000000000000000000000000000000815250905090565b600080610da9611039565b9050610dc6848285604051806020016040528060008152506112aa565b91505092915050565b600080610dda611039565b9050610e2c86828787878080601f016020809104026020016040519081016040528093929190818152602001838380828437600081840152601f19601f820116905080830192505050505050506112aa565b915050949350505050565b6000610e4585858585611502565b9050949350505050565b60006064905090565b6000600354905090565b6000670de0b6b3a7640000905090565b6000610ecf600160008481526020019081526020016000206001016040518060200160405290816000820160009054906101000a900467ffffffffffffffff1667ffffffffffffffff1667ffffffffffffffff1681525050611257565b67ffffffffffffffff169050919050565b600084848484604051602001610ef9949392919061300d565b6040516020818303038152906040528051906020012060001c9050949350505050565b60606040518060400160405280602081526020017f737570706f72743d627261766f2671756f72756d3d666f722c6162737461696e815250905090565b7f150214d74d59b7d1e90c73fc22ef3d991dd0a76b046543d4d80ab92d2a50328f81565b6000610f898383611579565b905092915050565b6000610f9c8261162e565b9050919050565b7f000000000000000000000000000000000000000000000000000000000000000081565b60007f01ffc9a7000000000000000000000000000000000000000000000000000000007bffffffffffffffffffffffffffffffffffffffffffffffffffffffff1916827bffffffffffffffffffffffffffffffffffffffffffffffffffffffff1916149050919050565b600030905090565b600033905090565b611049610e4f565b81111561108b576040517f08c379a000000000000000000000000000000000000000000000000000000000815260040161108290613204565b60405180910390fd5b60006003549050816003819055507f0553476bf02ef2726e8ce5ced78d63e26e602e4a2257b1f559418e24b463399781836040516110ca92919061348f565b60405180910390a15050565b60006040518060600160405280602781526020016140f960279139905060005b855181101561124e5760008087838151811061113b577f4e487b7100000000000000000000000000000000000000000000000000000000600052603260045260246000fd5b602002602001015173ffffffffffffffffffffffffffffffffffffffff16878481518110611192577f4e487b7100000000000000000000000000000000000000000000000000000000600052603260045260246000fd5b60200260200101518785815181106111d3577f4e487b7100000000000000000000000000000000000000000000000000000000600052603260045260246000fd5b60200260200101516040516111e89190612f96565b60006040518083038185875af1925050503d8060008114611225576040519150601f19603f3d011682016040523d82523d6000602084013e61122a565b606091505b509150915061123a828286611704565b5050508061124790613a7b565b90506110f6565b50505050505050565b600081600001519050919050565b600061127861127261176b565b8361182e565b9050919050565b600080600061129087878787611861565b9150915061129d8161196e565b8192505050949350505050565b600080600160008781526020019081526020016000209050600160078111156112fc577f4e487b7100000000000000000000000000000000000000000000000000000000600052602160045260246000fd5b61130587610af7565b600781111561133d577f4e487b7100000000000000000000000000000000000000000000000000000000600052602160045260246000fd5b1461137d576040517f08c379a0000000000000000000000000000000000000000000000000000000008152600401611374906132c4565b60405180910390fd5b60006113db866113cc846000016040518060200160405290816000820160009054906101000a900467ffffffffffffffff1667ffffffffffffffff1667ffffffffffffffff1681525050611257565b67ffffffffffffffff16610f7d565b90506113e987878784611cbf565b8573ffffffffffffffffffffffffffffffffffffffff167fb8e138887d0aa13bab447e82de9d5c1777041ecd21ca36ba824ff1e6c07ddda48887848860405161143594939291906134ef565b60405180910390a28092505050949350505050565b600043826000015167ffffffffffffffff16119050919050565b600061146f82611f37565b8015611489575043826000015167ffffffffffffffff1611155b9050919050565b600080600260008481526020019081526020016000209050806002015481600101546114bc9190613789565b6114cd6114c8856109f6565b610f91565b1115915050919050565b6000806002600084815260200190815260200160002090508060000154816001015411915050919050565b600061150c610e62565b6115223360014361151d91906138a8565b610f7d565b1015611563576040517f08c379a000000000000000000000000000000000000000000000000000000000815260040161155a90613224565b60405180910390fd5b61156f85858585611f51565b9050949350505050565b60007f000000000000000000000000000000000000000000000000000000000000000073ffffffffffffffffffffffffffffffffffffffff16633a46b1a884846040518363ffffffff1660e01b81526004016115d6929190612fe4565b60206040518083038186803b1580156115ee57600080fd5b505afa158015611602573d6000803e3d6000fd5b505050506040513d601f19601f820116820180604052508101906116269190612838565b905092915050565b6000611638610e4f565b611640610e58565b7f000000000000000000000000000000000000000000000000000000000000000073ffffffffffffffffffffffffffffffffffffffff16638e539e8c856040518263ffffffff1660e01b815260040161169991906133c4565b60206040518083038186803b1580156116b157600080fd5b505afa1580156116c5573d6000803e3d6000fd5b505050506040513d601f19601f820116820180604052508101906116e99190612838565b6116f3919061384e565b6116fd919061381d565b9050919050565b6060831561171457829050611764565b6000835111156117275782518084602001fd5b816040517f08c379a000000000000000000000000000000000000000000000000000000000815260040161175b91906131a2565b60405180910390fd5b9392505050565b60007f00000000000000000000000000000000000000000000000000000000000000004614156117bd577f0000000000000000000000000000000000000000000000000000000000000000905061182b565b6118287f00000000000000000000000000000000000000000000000000000000000000007f00000000000000000000000000000000000000000000000000000000000000007f0000000000000000000000000000000000000000000000000000000000000000612217565b90505b90565b60008282604051602001611843929190612fad565b60405160208183030381529060405280519060200120905092915050565b6000807f7fffffffffffffffffffffffffffffff5d576e7357a4501ddfe92f46681b20a08360001c111561189c576000600391509150611965565b601b8560ff16141580156118b45750601c8560ff1614155b156118c6576000600491509150611965565b6000600187878787604051600081526020016040526040516118eb9493929190613127565b6020604051602081039080840390855afa15801561190d573d6000803e3d6000fd5b505050602060405103519050600073ffffffffffffffffffffffffffffffffffffffff168173ffffffffffffffffffffffffffffffffffffffff16141561195c57600060019250925050611965565b80600092509250505b94509492505050565b600060048111156119a8577f4e487b7100000000000000000000000000000000000000000000000000000000600052602160045260246000fd5b8160048111156119e1577f4e487b7100000000000000000000000000000000000000000000000000000000600052602160045260246000fd5b14156119ec57611cbc565b60016004811115611a26577f4e487b7100000000000000000000000000000000000000000000000000000000600052602160045260246000fd5b816004811115611a5f577f4e487b7100000000000000000000000000000000000000000000000000000000600052602160045260246000fd5b1415611aa0576040517f08c379a0000000000000000000000000000000000000000000000000000000008152600401611a97906131c4565b60405180910390fd5b60026004811115611ada577f4e487b7100000000000000000000000000000000000000000000000000000000600052602160045260246000fd5b816004811115611b13577f4e487b7100000000000000000000000000000000000000000000000000000000600052602160045260246000fd5b1415611b54576040517f08c379a0000000000000000000000000000000000000000000000000000000008152600401611b4b90613244565b60405180910390fd5b60036004811115611b8e577f4e487b7100000000000000000000000000000000000000000000000000000000600052602160045260246000fd5b816004811115611bc7577f4e487b7100000000000000000000000000000000000000000000000000000000600052602160045260246000fd5b1415611c08576040517f08c379a0000000000000000000000000000000000000000000000000000000008152600401611bff90613284565b60405180910390fd5b600480811115611c41577f4e487b7100000000000000000000000000000000000000000000000000000000600052602160045260246000fd5b816004811115611c7a577f4e487b7100000000000000000000000000000000000000000000000000000000600052602160045260246000fd5b1415611cbb576040517f08c379a0000000000000000000000000000000000000000000000000000000008152600401611cb290613304565b60405180910390fd5b5b50565b60006002600086815260200190815260200160002090508060030160008573ffffffffffffffffffffffffffffffffffffffff1673ffffffffffffffffffffffffffffffffffffffff16815260200190815260200160002060009054906101000a900460ff1615611d65576040517f08c379a0000000000000000000000000000000000000000000000000000000008152600401611d5c906132a4565b60405180910390fd5b60018160030160008673ffffffffffffffffffffffffffffffffffffffff1673ffffffffffffffffffffffffffffffffffffffff16815260200190815260200160002060006101000a81548160ff02191690831515021790555060006002811115611df9577f4e487b7100000000000000000000000000000000000000000000000000000000600052602160045260246000fd5b60ff168360ff161415611e265781816000016000828254611e1a9190613789565b92505081905550611f30565b60016002811115611e60577f4e487b7100000000000000000000000000000000000000000000000000000000600052602160045260246000fd5b60ff168360ff161415611e8d5781816001016000828254611e819190613789565b92505081905550611f2f565b600280811115611ec6577f4e487b7100000000000000000000000000000000000000000000000000000000600052602160045260246000fd5b60ff168360ff161415611ef35781816002016000828254611ee79190613789565b92505081905550611f2e565b6040517f08c379a0000000000000000000000000000000000000000000000000000000008152600401611f2590613384565b60405180910390fd5b5b5b5050505050565b600080826000015167ffffffffffffffff16119050919050565b600080611f678686868680519060200120610ee0565b90508451865114611fad576040517f08c379a0000000000000000000000000000000000000000000000000000000008152600401611fa490613264565b60405180910390fd5b8351865114611ff1576040517f08c379a0000000000000000000000000000000000000000000000000000000008152600401611fe890613264565b60405180910390fd5b6000865111612035576040517f08c379a000000000000000000000000000000000000000000000000000000000815260040161202c906132e4565b60405180910390fd5b6000600160008381526020019081526020016000209050612095816000016040518060200160405290816000820160009054906101000a900467ffffffffffffffff1667ffffffffffffffff1667ffffffffffffffff1681525050612251565b6120d4576040517f08c379a00000000000000000000000000000000000000000000000000000000081526004016120cb906133a4565b60405180910390fd5b60006120e66120e1610a64565b61226b565b6120ef4361226b565b6120f991906137df565b9050600061210d612108610707565b61226b565b8261211891906137df565b905061213082846000016122c290919063ffffffff16565b61214681846001016122c290919063ffffffff16565b7f7d84a6263ae0d98d3329bd7b46bb4e8d6f98cd35a7adb45c274c8b7fd5ebd5e084612170611039565b8b8b8d5167ffffffffffffffff8111156121b3577f4e487b7100000000000000000000000000000000000000000000000000000000600052604160045260246000fd5b6040519080825280602002602001820160405280156121e657816020015b60608152602001906001900390816121d15790505b508c88888e604051612200999897969594939291906133df565b60405180910390a183945050505050949350505050565b6000838383463060405160200161223295949392919061309d565b6040516020818303038152906040528051906020012090509392505050565b600080826000015167ffffffffffffffff16149050919050565b600067ffffffffffffffff80168211156122ba576040517f08c379a00000000000000000000000000000000000000000000000000000000081526004016122b190613324565b60405180910390fd5b819050919050565b808260000160006101000a81548167ffffffffffffffff021916908367ffffffffffffffff1602179055505050565b60006123046122ff84613560565b61353b565b9050808382526020820190508285602086028201111561232357600080fd5b60005b85811015612353578161233988826124a2565b845260208401935060208301925050600181019050612326565b5050509392505050565b600061237061236b8461358c565b61353b565b9050808382526020820190508260005b858110156123b05781358501612396888261255f565b845260208401935060208301925050600181019050612380565b5050509392505050565b60006123cd6123c8846135b8565b61353b565b905080838252602082019050828560208602820111156123ec57600080fd5b60005b8581101561241c578161240288826125fd565b8452602084019350602083019250506001810190506123ef565b5050509392505050565b6000612439612434846135e4565b61353b565b90508281526020810184848401111561245157600080fd5b61245c8482856139d6565b509392505050565b600061247761247284613615565b61353b565b90508281526020810184848401111561248f57600080fd5b61249a8482856139d6565b509392505050565b6000813590506124b181614085565b92915050565b600082601f8301126124c857600080fd5b81356124d88482602086016122f1565b91505092915050565b600082601f8301126124f257600080fd5b813561250284826020860161235d565b91505092915050565b600082601f83011261251c57600080fd5b813561252c8482602086016123ba565b91505092915050565b6000813590506125448161409c565b92915050565b600081359050612559816140b3565b92915050565b600082601f83011261257057600080fd5b8135612580848260208601612426565b91505092915050565b60008083601f84011261259b57600080fd5b8235905067ffffffffffffffff8111156125b457600080fd5b6020830191508360018202830111156125cc57600080fd5b9250929050565b600082601f8301126125e457600080fd5b81356125f4848260208601612464565b91505092915050565b60008135905061260c816140ca565b92915050565b600081519050612621816140ca565b92915050565b600081359050612636816140e1565b92915050565b6000806040838503121561264f57600080fd5b600061265d858286016124a2565b925050602061266e858286016125fd565b9150509250929050565b6000806000806080858703121561268e57600080fd5b600085013567ffffffffffffffff8111156126a857600080fd5b6126b4878288016124b7565b945050602085013567ffffffffffffffff8111156126d157600080fd5b6126dd8782880161250b565b935050604085013567ffffffffffffffff8111156126fa57600080fd5b612706878288016124e1565b925050606061271787828801612535565b91505092959194509250565b6000806000806080858703121561273957600080fd5b600085013567ffffffffffffffff81111561275357600080fd5b61275f878288016124b7565b945050602085013567ffffffffffffffff81111561277c57600080fd5b6127888782880161250b565b935050604085013567ffffffffffffffff8111156127a557600080fd5b6127b1878288016124e1565b925050606085013567ffffffffffffffff8111156127ce57600080fd5b6127da878288016125d3565b91505092959194509250565b6000602082840312156127f857600080fd5b60006128068482850161254a565b91505092915050565b60006020828403121561282157600080fd5b600061282f848285016125fd565b91505092915050565b60006020828403121561284a57600080fd5b600061285884828501612612565b91505092915050565b6000806040838503121561287457600080fd5b6000612882858286016125fd565b9250506020612893858286016124a2565b9150509250929050565b600080604083850312156128b057600080fd5b60006128be858286016125fd565b92505060206128cf85828601612627565b9150509250929050565b600080600080606085870312156128ef57600080fd5b60006128fd878288016125fd565b945050602061290e87828801612627565b935050604085013567ffffffffffffffff81111561292b57600080fd5b61293787828801612589565b925092505092959194509250565b600080600080600060a0868803121561295d57600080fd5b600061296b888289016125fd565b955050602061297c88828901612627565b945050604061298d88828901612627565b935050606061299e88828901612535565b92505060806129af88828901612535565b9150509295509295909350565b60006129c88383612a14565b60208301905092915050565b60006129e08383612c0d565b905092915050565b60006129f48383612c95565b905092915050565b6000612a088383612f5a565b60208301905092915050565b612a1d816138dc565b82525050565b612a2c816138dc565b82525050565b6000612a3d82613686565b612a4781856136fc565b9350612a5283613646565b8060005b83811015612a83578151612a6a88826129bc565b9750612a75836136c8565b925050600181019050612a56565b5085935050505092915050565b6000612a9b82613691565b612aa5818561370d565b935083602082028501612ab785613656565b8060005b85811015612af35784840389528151612ad485826129d4565b9450612adf836136d5565b925060208a01995050600181019050612abb565b50829750879550505050505092915050565b6000612b108261369c565b612b1a818561371e565b935083602082028501612b2c85613666565b8060005b85811015612b685784840389528151612b4985826129e8565b9450612b54836136e2565b925060208a01995050600181019050612b30565b50829750879550505050505092915050565b6000612b85826136a7565b612b8f818561372f565b9350612b9a83613676565b8060005b83811015612bcb578151612bb288826129fc565b9750612bbd836136ef565b925050600181019050612b9e565b5085935050505092915050565b612be1816138ee565b82525050565b612bf0816138fa565b82525050565b612c07612c02826138fa565b613ac4565b82525050565b6000612c18826136b2565b612c228185613740565b9350612c328185602086016139e5565b612c3b81613bb9565b840191505092915050565b6000612c51826136b2565b612c5b8185613751565b9350612c6b8185602086016139e5565b80840191505092915050565b612c808161398e565b82525050565b612c8f816139b2565b82525050565b6000612ca0826136bd565b612caa818561375c565b9350612cba8185602086016139e5565b612cc381613bb9565b840191505092915050565b6000612cd9826136bd565b612ce3818561376d565b9350612cf38185602086016139e5565b612cfc81613bb9565b840191505092915050565b6000612d1460188361376d565b9150612d1f82613bca565b602082019050919050565b6000612d3760188361376d565b9150612d4282613bf3565b602082019050919050565b6000612d5a60438361376d565b9150612d6582613c1c565b606082019050919050565b6000612d7d60438361376d565b9150612d8882613c91565b606082019050919050565b6000612da0601f8361376d565b9150612dab82613d06565b602082019050919050565b6000612dc360028361377e565b9150612dce82613d2f565b600282019050919050565b6000612de660218361376d565b9150612df182613d58565b604082019050919050565b6000612e0960228361376d565b9150612e1482613da7565b604082019050919050565b6000612e2c60278361376d565b9150612e3782613df6565b604082019050919050565b6000612e4f60238361376d565b9150612e5a82613e45565b604082019050919050565b6000612e7260188361376d565b9150612e7d82613e94565b602082019050919050565b6000612e9560228361376d565b9150612ea082613ebd565b604082019050919050565b6000612eb860268361376d565b9150612ec382613f0c565b604082019050919050565b6000612edb60218361376d565b9150612ee682613f5b565b604082019050919050565b6000612efe601d8361376d565b9150612f0982613faa565b602082019050919050565b6000612f2160358361376d565b9150612f2c82613fd3565b604082019050919050565b6000612f4460218361376d565b9150612f4f82614022565b604082019050919050565b612f6381613963565b82525050565b612f7281613963565b82525050565b612f81816139c4565b82525050565b612f9081613981565b82525050565b6000612fa28284612c46565b915081905092915050565b6000612fb882612db6565b9150612fc48285612bf6565b602082019150612fd48284612bf6565b6020820191508190509392505050565b6000604082019050612ff96000830185612a23565b6130066020830184612f69565b9392505050565b600060808201905081810360008301526130278187612a32565b9050818103602083015261303b8186612b7a565b9050818103604083015261304f8185612a90565b905061305e6060830184612be7565b95945050505050565b600060208201905061307c6000830184612bd8565b92915050565b60006020820190506130976000830184612be7565b92915050565b600060a0820190506130b26000830188612be7565b6130bf6020830187612be7565b6130cc6040830186612be7565b6130d96060830185612f69565b6130e66080830184612a23565b9695505050505050565b60006060820190506131056000830186612be7565b6131126020830185612f69565b61311f6040830184612f87565b949350505050565b600060808201905061313c6000830187612be7565b6131496020830186612f87565b6131566040830185612be7565b6131636060830184612be7565b95945050505050565b60006020820190506131816000830184612c77565b92915050565b600060208201905061319c6000830184612c86565b92915050565b600060208201905081810360008301526131bc8184612cce565b905092915050565b600060208201905081810360008301526131dd81612d07565b9050919050565b600060208201905081810360008301526131fd81612d2a565b9050919050565b6000602082019050818103600083015261321d81612d4d565b9050919050565b6000602082019050818103600083015261323d81612d70565b9050919050565b6000602082019050818103600083015261325d81612d93565b9050919050565b6000602082019050818103600083015261327d81612dd9565b9050919050565b6000602082019050818103600083015261329d81612dfc565b9050919050565b600060208201905081810360008301526132bd81612e1f565b9050919050565b600060208201905081810360008301526132dd81612e42565b9050919050565b600060208201905081810360008301526132fd81612e65565b9050919050565b6000602082019050818103600083015261331d81612e88565b9050919050565b6000602082019050818103600083015261333d81612eab565b9050919050565b6000602082019050818103600083015261335d81612ece565b9050919050565b6000602082019050818103600083015261337d81612ef1565b9050919050565b6000602082019050818103600083015261339d81612f14565b9050919050565b600060208201905081810360008301526133bd81612f37565b9050919050565b60006020820190506133d96000830184612f69565b92915050565b6000610120820190506133f5600083018c612f69565b613402602083018b612a23565b8181036040830152613414818a612a32565b905081810360608301526134288189612b7a565b9050818103608083015261343c8188612b05565b905081810360a08301526134508187612a90565b905061345f60c0830186612f78565b61346c60e0830185612f78565b81810361010083015261347f8184612cce565b90509a9950505050505050505050565b60006040820190506134a46000830185612f69565b6134b16020830184612f69565b9392505050565b60006060820190506134cd6000830186612f69565b6134da6020830185612f69565b6134e76040830184612f69565b949350505050565b60006080820190506135046000830187612f69565b6135116020830186612f87565b61351e6040830185612f69565b81810360608301526135308184612cce565b905095945050505050565b6000613545613556565b90506135518282613a4a565b919050565b6000604051905090565b600067ffffffffffffffff82111561357b5761357a613b8a565b5b602082029050602081019050919050565b600067ffffffffffffffff8211156135a7576135a6613b8a565b5b602082029050602081019050919050565b600067ffffffffffffffff8211156135d3576135d2613b8a565b5b602082029050602081019050919050565b600067ffffffffffffffff8211156135ff576135fe613b8a565b5b61360882613bb9565b9050602081019050919050565b600067ffffffffffffffff8211156136305761362f613b8a565b5b61363982613bb9565b9050602081019050919050565b6000819050602082019050919050565b6000819050602082019050919050565b6000819050602082019050919050565b6000819050602082019050919050565b600081519050919050565b600081519050919050565b600081519050919050565b600081519050919050565b600081519050919050565b600081519050919050565b6000602082019050919050565b6000602082019050919050565b6000602082019050919050565b6000602082019050919050565b600082825260208201905092915050565b600082825260208201905092915050565b600082825260208201905092915050565b600082825260208201905092915050565b600082825260208201905092915050565b600081905092915050565b600082825260208201905092915050565b600082825260208201905092915050565b600081905092915050565b600061379482613963565b915061379f83613963565b9250827fffffffffffffffffffffffffffffffffffffffffffffffffffffffffffffffff038211156137d4576137d3613ace565b5b828201905092915050565b60006137ea8261396d565b91506137f58361396d565b92508267ffffffffffffffff0382111561381257613811613ace565b5b828201905092915050565b600061382882613963565b915061383383613963565b92508261384357613842613afd565b5b828204905092915050565b600061385982613963565b915061386483613963565b9250817fffffffffffffffffffffffffffffffffffffffffffffffffffffffffffffffff048311821515161561389d5761389c613ace565b5b828202905092915050565b60006138b382613963565b91506138be83613963565b9250828210156138d1576138d0613ace565b5b828203905092915050565b60006138e782613943565b9050919050565b60008115159050919050565b6000819050919050565b60007fffffffff0000000000000000000000000000000000000000000000000000000082169050919050565b600081905061393e82614071565b919050565b600073ffffffffffffffffffffffffffffffffffffffff82169050919050565b6000819050919050565b600067ffffffffffffffff82169050919050565b600060ff82169050919050565b6000613999826139a0565b9050919050565b60006139ab82613943565b9050919050565b60006139bd82613930565b9050919050565b60006139cf8261396d565b9050919050565b82818337600083830152505050565b60005b83811015613a035780820151818401526020810190506139e8565b83811115613a12576000848401525b50505050565b60006002820490506001821680613a3057607f821691505b60208210811415613a4457613a43613b5b565b5b50919050565b613a5382613bb9565b810181811067ffffffffffffffff82111715613a7257613a71613b8a565b5b80604052505050565b6000613a8682613963565b91507fffffffffffffffffffffffffffffffffffffffffffffffffffffffffffffffff821415613ab957613ab8613ace565b5b600182019050919050565b6000819050919050565b7f4e487b7100000000000000000000000000000000000000000000000000000000600052601160045260246000fd5b7f4e487b7100000000000000000000000000000000000000000000000000000000600052601260045260246000fd5b7f4e487b7100000000000000000000000000000000000000000000000000000000600052602160045260246000fd5b7f4e487b7100000000000000000000000000000000000000000000000000000000600052602260045260246000fd5b7f4e487b7100000000000000000000000000000000000000000000000000000000600052604160045260246000fd5b6000601f19601f8301169050919050565b7f45434453413a20696e76616c6964207369676e61747572650000000000000000600082015250565b7f476f7665726e6f723a206f6e6c79476f7665726e616e63650000000000000000600082015250565b7f476f7665726e6f72566f74657351756f72756d4672616374696f6e3a2071756f60008201527f72756d4e756d657261746f72206f7665722071756f72756d44656e6f6d696e6160208201527f746f720000000000000000000000000000000000000000000000000000000000604082015250565b7f476f7665726e6f72436f6d7061746962696c697479427261766f3a2070726f7060008201527f6f73657220766f7465732062656c6f772070726f706f73616c2074687265736860208201527f6f6c640000000000000000000000000000000000000000000000000000000000604082015250565b7f45434453413a20696e76616c6964207369676e6174757265206c656e67746800600082015250565b7f1901000000000000000000000000000000000000000000000000000000000000600082015250565b7f476f7665726e6f723a20696e76616c69642070726f706f73616c206c656e677460008201527f6800000000000000000000000000000000000000000000000000000000000000602082015250565b7f45434453413a20696e76616c6964207369676e6174757265202773272076616c60008201527f7565000000000000000000000000000000000000000000000000000000000000602082015250565b7f476f7665726e6f72566f74696e6753696d706c653a20766f746520616c72656160008201527f6479206361737400000000000000000000000000000000000000000000000000602082015250565b7f476f7665726e6f723a20766f7465206e6f742063757272656e746c792061637460008201527f6976650000000000000000000000000000000000000000000000000000000000602082015250565b7f476f7665726e6f723a20656d7074792070726f706f73616c0000000000000000600082015250565b7f45434453413a20696e76616c6964207369676e6174757265202776272076616c60008201527f7565000000000000000000000000000000000000000000000000000000000000602082015250565b7f53616665436173743a2076616c756520646f65736e27742066697420696e203660008201527f3420626974730000000000000000000000000000000000000000000000000000602082015250565b7f476f7665726e6f723a2070726f706f73616c206e6f742073756363657373667560008201527f6c00000000000000000000000000000000000000000000000000000000000000602082015250565b7f476f7665726e6f723a20756e6b6e6f776e2070726f706f73616c206964000000600082015250565b7f476f7665726e6f72566f74696e6753696d706c653a20696e76616c696420766160008201527f6c756520666f7220656e756d20566f7465547970650000000000000000000000602082015250565b7f476f7665726e6f723a2070726f706f73616c20616c726561647920657869737460008201527f7300000000000000000000000000000000000000000000000000000000000000602082015250565b6008811061408257614081613b2c565b5b50565b61408e816138dc565b811461409957600080fd5b50565b6140a5816138fa565b81146140b057600080fd5b50565b6140bc81613904565b81146140c757600080fd5b50565b6140d381613963565b81146140de57600080fd5b50565b6140ea81613981565b81146140f557600080fd5b5056fe476f7665726e6f723a2063616c6c20726576657274656420776974686f7574206d657373616765a26469706673582212201e5d56ec22d94939e0929e6dec658585ef002ad0f46bb4c246ed0ed33225ab5664736f6c63430008030033",
  "immutableReferences": {
    "1307": [
      {
        "length": 32,
        "start": 4005
      },
      {
        "length": 32,
        "start": 5501
      },
      {
        "length": 32,
        "start": 5698
      }
    ],
    "3918": [
      {
        "length": 32,
        "start": 6039
      }
    ],
    "3920": [
      {
        "length": 32,
        "start": 5999
      }
    ],
    "3922": [
      {
        "length": 32,
        "start": 6115
      }
    ],
    "3924": [
      {
        "length": 32,
        "start": 6148
      }
    ],
    "3926": [
      {
        "length": 32,
        "start": 6082
      }
    ]
  },
  "source": "// SPDX-License-Identifier: MIT\npragma solidity ^0.8.2;\n\nimport \"@openzeppelin/contracts/governance/Governor.sol\";\nimport \"@openzeppelin/contracts/governance/extensions/GovernorProposalThreshold.sol\";\nimport \"@openzeppelin/contracts/governance/extensions/GovernorCountingSimple.sol\";\nimport \"@openzeppelin/contracts/governance/extensions/GovernorVotes.sol\";\nimport \"@openzeppelin/contracts/governance/extensions/GovernorVotesQuorumFraction.sol\";\n\ncontract MosaicGovernor is GovernorProposalThreshold, GovernorCountingSimple, GovernorVotes, GovernorVotesQuorumFraction {\n    constructor(ERC20Votes _token)\n        Governor(\"MosaicGovernorAlpha\")\n        GovernorVotes(_token)\n        GovernorVotesQuorumFraction(10)\n    {}\n\n    function votingDelay() public pure override returns (uint256) {\n        return 1; // 1 block\n    }\n\n    function votingPeriod() public pure override returns (uint256) {\n        return 45818; // 1 week\n    }\n\n    function proposalThreshold() public pure override returns (uint256) {\n        return 1e18;\n    }\n\n    // The following functions are overrides required by Solidity.\n\n    function quorum(uint256 blockNumber)\n        public\n        view\n        override(IGovernor, GovernorVotesQuorumFraction)\n        returns (uint256)\n    {\n        return super.quorum(blockNumber);\n    }\n\n    function getVotes(address account, uint256 blockNumber)\n        public\n        view\n        override(IGovernor, GovernorVotes)\n        returns (uint256)\n    {\n        return super.getVotes(account, blockNumber);\n    }\n\n    function propose(address[] memory targets, uint256[] memory values, bytes[] memory calldatas, string memory description)\n        public\n        override(Governor, GovernorProposalThreshold)\n        returns (uint256)\n    {\n        return super.propose(targets, values, calldatas, description);\n    }\n}\n",
  "sourcePath": "/Users/shy/Projects/muraldao/contracts/MosaicGovernor.sol",
  "compiler": {
    "name": "solc",
    "version": "0.8.3+commit.8d00100c.Emscripten.clang"
  },
  "schemaVersion": "3.4.3",
  "updatedAt": "2021-11-20T01:52:53.299Z",
  "devdoc": {
    "kind": "dev",
    "methods": {
      "COUNTING_MODE()": {
        "details": "See {IGovernor-COUNTING_MODE}."
      },
      "castVote(uint256,uint8)": {
        "details": "See {IGovernor-castVote}."
      },
      "castVoteBySig(uint256,uint8,uint8,bytes32,bytes32)": {
        "details": "See {IGovernor-castVoteBySig}."
      },
      "castVoteWithReason(uint256,uint8,string)": {
        "details": "See {IGovernor-castVoteWithReason}."
      },
      "execute(address[],uint256[],bytes[],bytes32)": {
        "details": "See {IGovernor-execute}."
      },
      "hasVoted(uint256,address)": {
        "details": "See {IGovernor-hasVoted}."
      },
      "hashProposal(address[],uint256[],bytes[],bytes32)": {
        "details": "See {IGovernor-hashProposal}. The proposal id is produced by hashing the RLC encoded `targets` array, the `values` array, the `calldatas` array and the descriptionHash (bytes32 which itself is the keccak256 hash of the description string). This proposal id can be produced from the proposal data which is part of the {ProposalCreated} event. It can even be computed in advance, before the proposal is submitted. Note that the chainId and the governor address are not part of the proposal id computation. Consequently, the same proposal (with same operation and same description) will have the same id if submitted on multiple governors accross multiple networks. This also means that in order to execute the same operation twice (on the same governor) the proposer will have to change the description in order to avoid proposal id conflicts."
      },
      "name()": {
        "details": "See {IGovernor-name}."
      },
      "proposalDeadline(uint256)": {
        "details": "See {IGovernor-proposalDeadline}."
      },
      "proposalSnapshot(uint256)": {
        "details": "See {IGovernor-proposalSnapshot}."
      },
      "proposalThreshold()": {
        "details": "Part of the Governor Bravo's interface: _\"The number of votes required in order for a voter to become a proposer\"_."
      },
      "proposalVotes(uint256)": {
        "details": "Accessor to the internal vote counts."
      },
      "state(uint256)": {
        "details": "See {IGovernor-state}."
      },
      "supportsInterface(bytes4)": {
        "details": "See {IERC165-supportsInterface}."
      },
      "version()": {
        "details": "See {IGovernor-version}."
      },
      "votingDelay()": {
        "details": "delay, in number of block, between the proposal is created and the vote starts. This can be increassed to leave time for users to buy voting power, of delegate it, before the voting of a proposal starts."
      },
      "votingPeriod()": {
        "details": "delay, in number of blocks, between the vote start and vote ends. Note: the {votingDelay} can delay the start of the vote. This must be considered when setting the voting duration compared to the voting delay."
      }
    },
    "version": 1
  },
  "userdoc": {
    "kind": "user",
    "methods": {
      "votingDelay()": {
        "notice": "module:user-config"
      },
      "votingPeriod()": {
        "notice": "module:user-config"
      }
    },
    "version": 1
  }
}