{
  "contractName": "TokenAirDrop",
  "abi": [
    {
      "inputs": [
        {
          "internalType": "contract ERC20",
          "name": "_token",
          "type": "address"
        },
        {
          "internalType": "uint256",
          "name": "_airdropAmount",
          "type": "uint256"
        }
      ],
      "stateMutability": "nonpayable",
      "type": "constructor"
    },
    {
      "anonymous": false,
      "inputs": [
        {
          "indexed": true,
          "internalType": "address",
          "name": "previousOwner",
          "type": "address"
        },
        {
          "indexed": true,
          "internalType": "address",
          "name": "newOwner",
          "type": "address"
        }
      ],
      "name": "OwnershipTransferred",
      "type": "event"
    },
    {
      "inputs": [],
      "name": "owner",
      "outputs": [
        {
          "internalType": "address",
          "name": "",
          "type": "address"
        }
      ],
      "stateMutability": "view",
      "type": "function",
      "constant": true
    },
    {
      "inputs": [],
      "name": "renounceOwnership",
      "outputs": [],
      "stateMutability": "nonpayable",
      "type": "function"
    },
    {
      "inputs": [
        {
          "internalType": "address",
          "name": "newOwner",
          "type": "address"
        }
      ],
      "name": "transferOwnership",
      "outputs": [],
      "stateMutability": "nonpayable",
      "type": "function"
    },
    {
      "inputs": [],
      "name": "claim",
      "outputs": [],
      "stateMutability": "nonpayable",
      "type": "function"
    },
    {
      "inputs": [],
      "name": "remainingTokens",
      "outputs": [
        {
          "internalType": "uint256",
          "name": "",
          "type": "uint256"
        }
      ],
      "stateMutability": "view",
      "type": "function",
      "constant": true
    }
  ],
  "bytecode": "0x608060405234801561001057600080fd5b506040516108fc3803806108fc83398181016040528101906100329190610193565b61004e61004361009d60201b60201c565b6100a560201b60201c565b8060038190555081600260006101000a81548173ffffffffffffffffffffffffffffffffffffffff021916908373ffffffffffffffffffffffffffffffffffffffff160217905550505061024b565b600033905090565b60008060009054906101000a900473ffffffffffffffffffffffffffffffffffffffff169050816000806101000a81548173ffffffffffffffffffffffffffffffffffffffff021916908373ffffffffffffffffffffffffffffffffffffffff1602179055508173ffffffffffffffffffffffffffffffffffffffff168173ffffffffffffffffffffffffffffffffffffffff167f8be0079c531659141344cd1fd0a4f28419497f9722a3daafe3b4186f6b6457e060405160405180910390a35050565b6000815190506101788161021d565b92915050565b60008151905061018d81610234565b92915050565b600080604083850312156101a657600080fd5b60006101b485828601610169565b92505060206101c58582860161017e565b9150509250929050565b60006101da826101f3565b9050919050565b60006101ec826101cf565b9050919050565b600073ffffffffffffffffffffffffffffffffffffffff82169050919050565b6000819050919050565b610226816101e1565b811461023157600080fd5b50565b61023d81610213565b811461024857600080fd5b50565b6106a28061025a6000396000f3fe608060405234801561001057600080fd5b50600436106100575760003560e01c80634e71d92d1461005c578063715018a6146100665780638da5cb5b14610070578063bf5839031461008e578063f2fde38b146100ac575b600080fd5b6100646100c8565b005b61006e6100ca565b005b610078610152565b60405161008591906104da565b60405180910390f35b61009661017b565b6040516100a3919061055e565b60405180910390f35b6100c660048036038101906100c19190610424565b610236565b005b565b6100d261032e565b73ffffffffffffffffffffffffffffffffffffffff166100f0610152565b73ffffffffffffffffffffffffffffffffffffffff1614610146576040517f08c379a000000000000000000000000000000000000000000000000000000000815260040161013d9061053e565b60405180910390fd5b6101506000610336565b565b60008060009054906101000a900473ffffffffffffffffffffffffffffffffffffffff16905090565b6000600260009054906101000a900473ffffffffffffffffffffffffffffffffffffffff1673ffffffffffffffffffffffffffffffffffffffff1663dd62ed3e6101c3610152565b306040518363ffffffff1660e01b81526004016101e19291906104f5565b60206040518083038186803b1580156101f957600080fd5b505afa15801561020d573d6000803e3d6000fd5b505050506040513d601f19601f82011682018060405250810190610231919061044d565b905090565b61023e61032e565b73ffffffffffffffffffffffffffffffffffffffff1661025c610152565b73ffffffffffffffffffffffffffffffffffffffff16146102b2576040517f08c379a00000000000000000000000000000000000000000000000000000000081526004016102a99061053e565b60405180910390fd5b600073ffffffffffffffffffffffffffffffffffffffff168173ffffffffffffffffffffffffffffffffffffffff161415610322576040517f08c379a00000000000000000000000000000000000000000000000000000000081526004016103199061051e565b60405180910390fd5b61032b81610336565b50565b600033905090565b60008060009054906101000a900473ffffffffffffffffffffffffffffffffffffffff169050816000806101000a81548173ffffffffffffffffffffffffffffffffffffffff021916908373ffffffffffffffffffffffffffffffffffffffff1602179055508173ffffffffffffffffffffffffffffffffffffffff168173ffffffffffffffffffffffffffffffffffffffff167f8be0079c531659141344cd1fd0a4f28419497f9722a3daafe3b4186f6b6457e060405160405180910390a35050565b6000813590506104098161063e565b92915050565b60008151905061041e81610655565b92915050565b60006020828403121561043657600080fd5b6000610444848285016103fa565b91505092915050565b60006020828403121561045f57600080fd5b600061046d8482850161040f565b91505092915050565b61047f8161058a565b82525050565b6000610492602683610579565b915061049d826105c6565b604082019050919050565b60006104b5602083610579565b91506104c082610615565b602082019050919050565b6104d4816105bc565b82525050565b60006020820190506104ef6000830184610476565b92915050565b600060408201905061050a6000830185610476565b6105176020830184610476565b9392505050565b6000602082019050818103600083015261053781610485565b9050919050565b60006020820190508181036000830152610557816104a8565b9050919050565b600060208201905061057360008301846104cb565b92915050565b600082825260208201905092915050565b60006105958261059c565b9050919050565b600073ffffffffffffffffffffffffffffffffffffffff82169050919050565b6000819050919050565b7f4f776e61626c653a206e6577206f776e657220697320746865207a65726f206160008201527f6464726573730000000000000000000000000000000000000000000000000000602082015250565b7f4f776e61626c653a2063616c6c6572206973206e6f7420746865206f776e6572600082015250565b6106478161058a565b811461065257600080fd5b50565b61065e816105bc565b811461066957600080fd5b5056fea26469706673582212204d30650ffb29cd05bfa320fa33ebe571e8720c8455f3bc8a33697a1fc8a90c3964736f6c63430008030033",
  "immutableReferences": {},
  "source": "// SPDX-License-Identifier: MIT\r\npragma solidity ^0.8.3;\r\nimport \"@openzeppelin/contracts/token/ERC20/ERC20.sol\";\r\nimport \"@openzeppelin/contracts/access/Ownable.sol\";\r\n\r\n// THIS IS NOT INTENDED FOR PRODUCTION USE, ONLY FOR TESTING\r\ncontract TokenAirDrop is Ownable {\r\n    mapping(address => bool) _claimed; \r\n    ERC20 token;\r\n    uint256 airdropAmount;\r\n\r\n    constructor(ERC20 _token, uint256 _airdropAmount) {\r\n        airdropAmount = _airdropAmount;\r\n        token = _token;\r\n    }\r\n\r\n    function claim() external {\r\n        // require(!_claimed[tx.origin], \"You already claimed the tokens once!\");\r\n        // _claimed[tx.origin] = true;\r\n        // token.transferFrom(owner(), msg.sender, airdropAmount);\r\n    }\r\n\r\n    function remainingTokens() external view returns (uint256) {\r\n        return token.allowance(owner(), address(this));\r\n    }\r\n}\r\n",
  "sourcePath": "C:/Users/Kuan/Documents/GitHub/mosaicdao/contracts/TokenAirDrop.sol",
  "compiler": {
    "name": "solc",
    "version": "0.8.3+commit.8d00100c.Emscripten.clang"
  },
  "schemaVersion": "3.3.4",
  "updatedAt": "2021-11-18T23:03:18.822Z",
  "networkType": "ethereum",
  "devdoc": {
    "kind": "dev",
    "methods": {
      "owner()": {
        "details": "Returns the address of the current owner."
      },
      "renounceOwnership()": {
        "details": "Leaves the contract without owner. It will not be possible to call `onlyOwner` functions anymore. Can only be called by the current owner. NOTE: Renouncing ownership will leave the contract without an owner, thereby removing any functionality that is only available to the owner."
      },
      "transferOwnership(address)": {
        "details": "Transfers ownership of the contract to a new account (`newOwner`). Can only be called by the current owner."
      }
    },
    "version": 1
  },
  "userdoc": {
    "kind": "user",
    "methods": {},
    "version": 1
  }
}