{
  "_format": "hh-sol-artifact-1",
  "contractName": "MosaicGovernor",
  "sourceName": "contracts/MosaicGovernor.sol",
  "abi": [
    {
      "inputs": [
        {
          "internalType": "contract ERC20Votes",
          "name": "_token",
          "type": "address"
        },
        {
          "internalType": "uint256",
          "name": "vperiod",
          "type": "uint256"
        },
        {
          "internalType": "uint256",
          "name": "pthreshold",
          "type": "uint256"
        },
        {
          "internalType": "uint256",
          "name": "quorumfrac",
          "type": "uint256"
        }
      ],
      "stateMutability": "nonpayable",
      "type": "constructor"
    },
    {
      "anonymous": false,
      "inputs": [
        {
          "indexed": false,
          "internalType": "uint256",
          "name": "proposalId",
          "type": "uint256"
        }
      ],
      "name": "ProposalCanceled",
      "type": "event"
    },
    {
      "anonymous": false,
      "inputs": [
        {
          "indexed": false,
          "internalType": "uint256",
          "name": "proposalId",
          "type": "uint256"
        },
        {
          "indexed": false,
          "internalType": "address",
          "name": "proposer",
          "type": "address"
        },
        {
          "indexed": false,
          "internalType": "address[]",
          "name": "targets",
          "type": "address[]"
        },
        {
          "indexed": false,
          "internalType": "uint256[]",
          "name": "values",
          "type": "uint256[]"
        },
        {
          "indexed": false,
          "internalType": "string[]",
          "name": "signatures",
          "type": "string[]"
        },
        {
          "indexed": false,
          "internalType": "bytes[]",
          "name": "calldatas",
          "type": "bytes[]"
        },
        {
          "indexed": false,
          "internalType": "uint256",
          "name": "startBlock",
          "type": "uint256"
        },
        {
          "indexed": false,
          "internalType": "uint256",
          "name": "endBlock",
          "type": "uint256"
        },
        {
          "indexed": false,
          "internalType": "string",
          "name": "description",
          "type": "string"
        }
      ],
      "name": "ProposalCreated",
      "type": "event"
    },
    {
      "anonymous": false,
      "inputs": [
        {
          "indexed": false,
          "internalType": "uint256",
          "name": "proposalId",
          "type": "uint256"
        },
        {
          "indexed": false,
          "internalType": "uint256",
          "name": "incrementingId",
          "type": "uint256"
        },
        {
          "indexed": false,
          "internalType": "string",
          "name": "uri",
          "type": "string"
        },
        {
          "indexed": false,
          "internalType": "uint256",
          "name": "imageIndex",
          "type": "uint256"
        },
        {
          "indexed": false,
          "internalType": "string",
          "name": "action",
          "type": "string"
        }
      ],
      "name": "ProposalDetails",
      "type": "event"
    },
    {
      "anonymous": false,
      "inputs": [
        {
          "indexed": false,
          "internalType": "uint256",
          "name": "proposalId",
          "type": "uint256"
        }
      ],
      "name": "ProposalExecuted",
      "type": "event"
    },
    {
      "anonymous": false,
      "inputs": [
        {
          "indexed": false,
          "internalType": "uint256",
          "name": "oldQuorumNumerator",
          "type": "uint256"
        },
        {
          "indexed": false,
          "internalType": "uint256",
          "name": "newQuorumNumerator",
          "type": "uint256"
        }
      ],
      "name": "QuorumNumeratorUpdated",
      "type": "event"
    },
    {
      "anonymous": false,
      "inputs": [
        {
          "indexed": true,
          "internalType": "address",
          "name": "voter",
          "type": "address"
        },
        {
          "indexed": false,
          "internalType": "uint256",
          "name": "proposalId",
          "type": "uint256"
        },
        {
          "indexed": false,
          "internalType": "uint8",
          "name": "support",
          "type": "uint8"
        },
        {
          "indexed": false,
          "internalType": "uint256",
          "name": "weight",
          "type": "uint256"
        },
        {
          "indexed": false,
          "internalType": "string",
          "name": "reason",
          "type": "string"
        }
      ],
      "name": "VoteCast",
      "type": "event"
    },
    {
      "inputs": [],
      "name": "BALLOT_TYPEHASH",
      "outputs": [
        {
          "internalType": "bytes32",
          "name": "",
          "type": "bytes32"
        }
      ],
      "stateMutability": "view",
      "type": "function"
    },
    {
      "inputs": [],
      "name": "COUNTING_MODE",
      "outputs": [
        {
          "internalType": "string",
          "name": "",
          "type": "string"
        }
      ],
      "stateMutability": "pure",
      "type": "function"
    },
    {
      "inputs": [
        {
          "internalType": "uint256",
          "name": "proposalId",
          "type": "uint256"
        },
        {
          "internalType": "uint8",
          "name": "support",
          "type": "uint8"
        }
      ],
      "name": "castVote",
      "outputs": [
        {
          "internalType": "uint256",
          "name": "",
          "type": "uint256"
        }
      ],
      "stateMutability": "nonpayable",
      "type": "function"
    },
    {
      "inputs": [
        {
          "internalType": "uint256",
          "name": "proposalId",
          "type": "uint256"
        },
        {
          "internalType": "uint8",
          "name": "support",
          "type": "uint8"
        },
        {
          "internalType": "uint8",
          "name": "v",
          "type": "uint8"
        },
        {
          "internalType": "bytes32",
          "name": "r",
          "type": "bytes32"
        },
        {
          "internalType": "bytes32",
          "name": "s",
          "type": "bytes32"
        }
      ],
      "name": "castVoteBySig",
      "outputs": [
        {
          "internalType": "uint256",
          "name": "",
          "type": "uint256"
        }
      ],
      "stateMutability": "nonpayable",
      "type": "function"
    },
    {
      "inputs": [
        {
          "internalType": "uint256",
          "name": "proposalId",
          "type": "uint256"
        },
        {
          "internalType": "uint8",
          "name": "support",
          "type": "uint8"
        },
        {
          "internalType": "string",
          "name": "reason",
          "type": "string"
        }
      ],
      "name": "castVoteWithReason",
      "outputs": [
        {
          "internalType": "uint256",
          "name": "",
          "type": "uint256"
        }
      ],
      "stateMutability": "nonpayable",
      "type": "function"
    },
    {
      "inputs": [
        {
          "internalType": "address[]",
          "name": "targets",
          "type": "address[]"
        },
        {
          "internalType": "uint256[]",
          "name": "values",
          "type": "uint256[]"
        },
        {
          "internalType": "bytes[]",
          "name": "calldatas",
          "type": "bytes[]"
        },
        {
          "internalType": "bytes32",
          "name": "descriptionHash",
          "type": "bytes32"
        }
      ],
      "name": "execute",
      "outputs": [
        {
          "internalType": "uint256",
          "name": "",
          "type": "uint256"
        }
      ],
      "stateMutability": "payable",
      "type": "function"
    },
    {
      "inputs": [
        {
          "internalType": "address",
          "name": "account",
          "type": "address"
        },
        {
          "internalType": "uint256",
          "name": "blockNumber",
          "type": "uint256"
        }
      ],
      "name": "getVotes",
      "outputs": [
        {
          "internalType": "uint256",
          "name": "",
          "type": "uint256"
        }
      ],
      "stateMutability": "view",
      "type": "function"
    },
    {
      "inputs": [
        {
          "internalType": "uint256",
          "name": "proposalId",
          "type": "uint256"
        },
        {
          "internalType": "address",
          "name": "account",
          "type": "address"
        }
      ],
      "name": "hasVoted",
      "outputs": [
        {
          "internalType": "bool",
          "name": "",
          "type": "bool"
        }
      ],
      "stateMutability": "view",
      "type": "function"
    },
    {
      "inputs": [
        {
          "internalType": "address[]",
          "name": "targets",
          "type": "address[]"
        },
        {
          "internalType": "uint256[]",
          "name": "values",
          "type": "uint256[]"
        },
        {
          "internalType": "bytes[]",
          "name": "calldatas",
          "type": "bytes[]"
        },
        {
          "internalType": "bytes32",
          "name": "descriptionHash",
          "type": "bytes32"
        }
      ],
      "name": "hashProposal",
      "outputs": [
        {
          "internalType": "uint256",
          "name": "",
          "type": "uint256"
        }
      ],
      "stateMutability": "pure",
      "type": "function"
    },
    {
      "inputs": [],
      "name": "name",
      "outputs": [
        {
          "internalType": "string",
          "name": "",
          "type": "string"
        }
      ],
      "stateMutability": "view",
      "type": "function"
    },
    {
      "inputs": [
        {
          "internalType": "uint256",
          "name": "proposalId",
          "type": "uint256"
        }
      ],
      "name": "proposalDeadline",
      "outputs": [
        {
          "internalType": "uint256",
          "name": "",
          "type": "uint256"
        }
      ],
      "stateMutability": "view",
      "type": "function"
    },
    {
      "inputs": [
        {
          "internalType": "uint256",
          "name": "proposalId",
          "type": "uint256"
        }
      ],
      "name": "proposalSnapshot",
      "outputs": [
        {
          "internalType": "uint256",
          "name": "",
          "type": "uint256"
        }
      ],
      "stateMutability": "view",
      "type": "function"
    },
    {
      "inputs": [],
      "name": "proposalThreshold",
      "outputs": [
        {
          "internalType": "uint256",
          "name": "",
          "type": "uint256"
        }
      ],
      "stateMutability": "view",
      "type": "function"
    },
    {
      "inputs": [
        {
          "internalType": "uint256",
          "name": "proposalId",
          "type": "uint256"
        }
      ],
      "name": "proposalVotes",
      "outputs": [
        {
          "internalType": "uint256",
          "name": "againstVotes",
          "type": "uint256"
        },
        {
          "internalType": "uint256",
          "name": "forVotes",
          "type": "uint256"
        },
        {
          "internalType": "uint256",
          "name": "abstainVotes",
          "type": "uint256"
        }
      ],
      "stateMutability": "view",
      "type": "function"
    },
    {
      "inputs": [
        {
          "internalType": "address[]",
          "name": "targets",
          "type": "address[]"
        },
        {
          "internalType": "uint256[]",
          "name": "values",
          "type": "uint256[]"
        },
        {
          "internalType": "bytes[]",
          "name": "calldatas",
          "type": "bytes[]"
        },
        {
          "internalType": "string",
          "name": "description",
          "type": "string"
        }
      ],
      "name": "propose",
      "outputs": [
        {
          "internalType": "uint256",
          "name": "",
          "type": "uint256"
        }
      ],
      "stateMutability": "nonpayable",
      "type": "function"
    },
    {
      "inputs": [
        {
          "internalType": "address[]",
          "name": "targets",
          "type": "address[]"
        },
        {
          "internalType": "uint256[]",
          "name": "values",
          "type": "uint256[]"
        },
        {
          "internalType": "bytes[]",
          "name": "calldatas",
          "type": "bytes[]"
        },
        {
          "internalType": "string",
          "name": "description",
          "type": "string"
        },
        {
          "internalType": "string",
          "name": "uri",
          "type": "string"
        },
        {
          "internalType": "uint256",
          "name": "imageIndex",
          "type": "uint256"
        },
        {
          "internalType": "string",
          "name": "action",
          "type": "string"
        }
      ],
      "name": "proposeWithDetails",
      "outputs": [
        {
          "internalType": "uint256",
          "name": "proposalId",
          "type": "uint256"
        }
      ],
      "stateMutability": "nonpayable",
      "type": "function"
    },
    {
      "inputs": [
        {
          "internalType": "uint256",
          "name": "blockNumber",
          "type": "uint256"
        }
      ],
      "name": "quorum",
      "outputs": [
        {
          "internalType": "uint256",
          "name": "",
          "type": "uint256"
        }
      ],
      "stateMutability": "view",
      "type": "function"
    },
    {
      "inputs": [],
      "name": "quorumDenominator",
      "outputs": [
        {
          "internalType": "uint256",
          "name": "",
          "type": "uint256"
        }
      ],
      "stateMutability": "view",
      "type": "function"
    },
    {
      "inputs": [],
      "name": "quorumNumerator",
      "outputs": [
        {
          "internalType": "uint256",
          "name": "",
          "type": "uint256"
        }
      ],
      "stateMutability": "view",
      "type": "function"
    },
    {
      "inputs": [
        {
          "internalType": "uint256",
          "name": "proposalId",
          "type": "uint256"
        }
      ],
      "name": "state",
      "outputs": [
        {
          "internalType": "enum IGovernor.ProposalState",
          "name": "",
          "type": "uint8"
        }
      ],
      "stateMutability": "view",
      "type": "function"
    },
    {
      "inputs": [
        {
          "internalType": "bytes4",
          "name": "interfaceId",
          "type": "bytes4"
        }
      ],
      "name": "supportsInterface",
      "outputs": [
        {
          "internalType": "bool",
          "name": "",
          "type": "bool"
        }
      ],
      "stateMutability": "view",
      "type": "function"
    },
    {
      "inputs": [],
      "name": "token",
      "outputs": [
        {
          "internalType": "contract ERC20Votes",
          "name": "",
          "type": "address"
        }
      ],
      "stateMutability": "view",
      "type": "function"
    },
    {
      "inputs": [
        {
          "internalType": "uint256",
          "name": "newQuorumNumerator",
          "type": "uint256"
        }
      ],
      "name": "updateQuorumNumerator",
      "outputs": [],
      "stateMutability": "nonpayable",
      "type": "function"
    },
    {
      "inputs": [],
      "name": "version",
      "outputs": [
        {
          "internalType": "string",
          "name": "",
          "type": "string"
        }
      ],
      "stateMutability": "view",
      "type": "function"
    },
    {
      "inputs": [],
      "name": "votingDelay",
      "outputs": [
        {
          "internalType": "uint256",
          "name": "",
          "type": "uint256"
        }
      ],
      "stateMutability": "pure",
      "type": "function"
    },
    {
      "inputs": [],
      "name": "votingPeriod",
      "outputs": [
        {
          "internalType": "uint256",
          "name": "",
          "type": "uint256"
        }
      ],
      "stateMutability": "view",
      "type": "function"
    }
  ],
  "bytecode": "0x61014060405260006004556103e8600555670de0b6b3a76400006006553480156200002957600080fd5b5060405162004ac338038062004ac383398181016040528101906200004f919062000394565b80846040518060400160405280601381526020017f4d6f73616963476f7665726e6f72416c7068610000000000000000000000000081525080620000986200019260201b60201c565b60008280519060200120905060008280519060200120905060007f8b73c3c69bb8fe3d512ecc4cf759cc79239f7b179b0ffacaa9a75d522b39400f90508260c081815250508160e081815250504660a0818152505062000100818484620001cf60201b60201c565b60808181525050806101008181525050505050505080600090805190602001906200012d929190620002b6565b50508073ffffffffffffffffffffffffffffffffffffffff166101208173ffffffffffffffffffffffffffffffffffffffff1660601b815250505062000179816200020b60201b60201c565b5082600581905550816006819055505050505062000681565b60606040518060400160405280600181526020017f3100000000000000000000000000000000000000000000000000000000000000815250905090565b60008383834630604051602001620001ec9594939291906200045a565b6040516020818303038152906040528051906020012090509392505050565b6200021b620002ad60201b60201c565b81111562000260576040517f08c379a00000000000000000000000000000000000000000000000000000000081526004016200025790620004b7565b60405180910390fd5b60006003549050816003819055507f0553476bf02ef2726e8ce5ced78d63e26e602e4a2257b1f559418e24b46339978183604051620002a1929190620004d9565b60405180910390a15050565b60006064905090565b828054620002c49062000573565b90600052602060002090601f016020900481019282620002e8576000855562000334565b82601f106200030357805160ff191683800117855562000334565b8280016001018555821562000334579182015b828111156200033357825182559160200191906001019062000316565b5b50905062000343919062000347565b5090565b5b808211156200036257600081600090555060010162000348565b5090565b60008151905062000377816200064d565b92915050565b6000815190506200038e8162000667565b92915050565b60008060008060808587031215620003ab57600080fd5b6000620003bb8782880162000366565b9450506020620003ce878288016200037d565b9350506040620003e1878288016200037d565b9250506060620003f4878288016200037d565b91505092959194509250565b6200040b8162000517565b82525050565b6200041c816200052b565b82525050565b60006200043160438362000506565b91506200043e82620005d8565b606082019050919050565b620004548162000569565b82525050565b600060a08201905062000471600083018862000411565b62000480602083018762000411565b6200048f604083018662000411565b6200049e606083018562000449565b620004ad608083018462000400565b9695505050505050565b60006020820190508181036000830152620004d28162000422565b9050919050565b6000604082019050620004f0600083018562000449565b620004ff602083018462000449565b9392505050565b600082825260208201905092915050565b6000620005248262000549565b9050919050565b6000819050919050565b6000620005428262000517565b9050919050565b600073ffffffffffffffffffffffffffffffffffffffff82169050919050565b6000819050919050565b600060028204905060018216806200058c57607f821691505b60208210811415620005a357620005a2620005a9565b5b50919050565b7f4e487b7100000000000000000000000000000000000000000000000000000000600052602260045260246000fd5b7f476f7665726e6f72566f74657351756f72756d4672616374696f6e3a2071756f60008201527f72756d4e756d657261746f72206f7665722071756f72756d44656e6f6d696e6160208201527f746f720000000000000000000000000000000000000000000000000000000000604082015250565b620006588162000535565b81146200066457600080fd5b50565b620006728162000569565b81146200067e57600080fd5b50565b60805160a05160c05160e051610100516101205160601c6143e1620006e260003960008181610e3e015281816113cf0152611494015260006117a0015260006117e2015260006117c10152600061174d0152600061177501526143e16000f3fe6080604052600436106101815760003560e01c80637b3c71d3116100d1578063c01f9e371161008a578063deaaa7cc11610064578063deaaa7cc14610615578063eb9019d414610640578063f8ce560a1461067d578063fc0c546a146106ba57610181565b8063c01f9e3714610570578063c59057e4146105ad578063dd4e2ba5146105ea57610181565b80637b3c71d3146104385780637d5e81e2146104755780638a5d432d146104b257806397c3d334146104ef578063a7713a701461051a578063b58131b01461054557610181565b80633932abb11161013e57806343859632116101185780634385963214610354578063544ffc9c1461039157806354fd4d50146103d057806356781388146103fb57610181565b80633932abb1146102af5780633bccf4fd146102da5780633e4f49e61461031757610181565b806301ffc9a71461018657806302a251a3146101c357806306f3f9e6146101ee57806306fdde03146102175780632656227d146102425780632d63f69314610272575b600080fd5b34801561019257600080fd5b506101ad60048036038101906101a89190612a11565b6106e5565b6040516101ba9190613292565b60405180910390f35b3480156101cf57600080fd5b506101d86106f7565b6040516101e591906135ef565b60405180910390f35b3480156101fa57600080fd5b5061021560048036038101906102109190612a3a565b610701565b005b34801561022357600080fd5b5061022c610789565b60405161023991906133cd565b60405180910390f35b61025c60048036038101906102579190612775565b61081b565b60405161026991906135ef565b60405180910390f35b34801561027e57600080fd5b5061029960048036038101906102949190612a3a565b6109e6565b6040516102a691906135ef565b60405180910390f35b3480156102bb57600080fd5b506102c4610a54565b6040516102d191906135ef565b60405180910390f35b3480156102e657600080fd5b5061030160048036038101906102fc9190612b70565b610a59565b60405161030e91906135ef565b60405180910390f35b34801561032357600080fd5b5061033e60048036038101906103399190612a3a565b610ae3565b60405161034b91906133b2565b60405180910390f35b34801561036057600080fd5b5061037b60048036038101906103769190612a8c565b610af5565b6040516103889190613292565b60405180910390f35b34801561039d57600080fd5b506103b860048036038101906103b39190612a3a565b610b60565b6040516103c793929190613744565b60405180910390f35b3480156103dc57600080fd5b506103e5610b98565b6040516103f291906133cd565b60405180910390f35b34801561040757600080fd5b50610422600480360381019061041d9190612ac8565b610bd5565b60405161042f91906135ef565b60405180910390f35b34801561044457600080fd5b5061045f600480360381019061045a9190612b04565b610c06565b60405161046c91906135ef565b60405180910390f35b34801561048157600080fd5b5061049c60048036038101906104979190612820565b610c6e565b6040516104a991906135ef565b60405180910390f35b3480156104be57600080fd5b506104d960048036038101906104d491906128e3565b610c78565b6040516104e691906135ef565b60405180910390f35b3480156104fb57600080fd5b50610504610cee565b60405161051191906135ef565b60405180910390f35b34801561052657600080fd5b5061052f610cf7565b60405161053c91906135ef565b60405180910390f35b34801561055157600080fd5b5061055a610d01565b60405161056791906135ef565b60405180910390f35b34801561057c57600080fd5b5061059760048036038101906105929190612a3a565b610d0b565b6040516105a491906135ef565b60405180910390f35b3480156105b957600080fd5b506105d460048036038101906105cf9190612775565b610d79565b6040516105e191906135ef565b60405180910390f35b3480156105f657600080fd5b506105ff610db5565b60405161060c91906133cd565b60405180910390f35b34801561062157600080fd5b5061062a610df2565b60405161063791906132ad565b60405180910390f35b34801561064c57600080fd5b5061066760048036038101906106629190612739565b610e16565b60405161067491906135ef565b60405180910390f35b34801561068957600080fd5b506106a4600480360381019061069f9190612a3a565b610e2a565b6040516106b191906135ef565b60405180910390f35b3480156106c657600080fd5b506106cf610e3c565b6040516106dc9190613397565b60405180910390f35b60006106f082610e60565b9050919050565b6000600554905090565b610709610eda565b73ffffffffffffffffffffffffffffffffffffffff16610727610ee9565b73ffffffffffffffffffffffffffffffffffffffff161461077d576040517f08c379a00000000000000000000000000000000000000000000000000000000081526004016107749061340f565b60405180910390fd5b61078681610ef1565b50565b60606000805461079890613ca4565b80601f01602080910402602001604051908101604052809291908181526020018280546107c490613ca4565b80156108115780601f106107e657610100808354040283529160200191610811565b820191906000526020600020905b8154815290600101906020018083116107f457829003601f168201915b5050505050905090565b60008061082a86868686610d79565b9050600061083782610ae3565b905060046007811115610873577f4e487b7100000000000000000000000000000000000000000000000000000000600052602160045260246000fd5b8160078111156108ac577f4e487b7100000000000000000000000000000000000000000000000000000000600052602160045260246000fd5b14806109285750600560078111156108ed577f4e487b7100000000000000000000000000000000000000000000000000000000600052602160045260246000fd5b816007811115610926577f4e487b7100000000000000000000000000000000000000000000000000000000600052602160045260246000fd5b145b610967576040517f08c379a000000000000000000000000000000000000000000000000000000000815260040161095e9061356f565b60405180910390fd5b600180600084815260200190815260200160002060020160006101000a81548160ff0219169083151502179055507f712ae1383f79ac853f8d882153778e0260ef8f03b504e2866e0593e04d2b291f826040516109c491906135ef565b60405180910390a16109d98288888888610f86565b8192505050949350505050565b6000610a43600160008481526020019081526020016000206000016040518060200160405290816000820160009054906101000a900467ffffffffffffffff1667ffffffffffffffff1667ffffffffffffffff1681525050610f9a565b67ffffffffffffffff169050919050565b600090565b600080610aba610ab27f150214d74d59b7d1e90c73fc22ef3d991dd0a76b046543d4d80ab92d2a50328f8989604051602001610a979392919061331b565b60405160208183030381529060405280519060200120610fa8565b868686610fc2565b9050610ad787828860405180602001604052806000815250610fed565b91505095945050505050565b6000610aee8261118d565b9050919050565b60006002600084815260200190815260200160002060030160008373ffffffffffffffffffffffffffffffffffffffff1673ffffffffffffffffffffffffffffffffffffffff16815260200190815260200160002060009054906101000a900460ff16905092915050565b600080600080600260008681526020019081526020016000209050806000015481600101548260020154935093509350509193909250565b60606040518060400160405280600181526020017f3100000000000000000000000000000000000000000000000000000000000000815250905090565b600080610be0610ee9565b9050610bfd84828560405180602001604052806000815250610fed565b91505092915050565b600080610c11610ee9565b9050610c6386828787878080601f016020809104026020016040519081016040528093929190818152602001838380828437600081840152601f19601f82011690508083019250505050505050610fed565b915050949350505050565b6000949350505050565b6000610c8688888888611354565b90507f7bed6bece574bcca4a1ec40700e27ec1d21880c1a79c685c1830d67a2cc1c5e381600454868686604051610cc19594939291906136e3565b60405180910390a1600160046000828254610cdc9190613a15565b92505081905550979650505050505050565b60006064905090565b6000600354905090565b6000600654905090565b6000610d68600160008481526020019081526020016000206001016040518060200160405290816000820160009054906101000a900467ffffffffffffffff1667ffffffffffffffff1667ffffffffffffffff1681525050610f9a565b67ffffffffffffffff169050919050565b600084848484604051602001610d929493929190613238565b6040516020818303038152906040528051906020012060001c9050949350505050565b60606040518060400160405280602081526020017f737570706f72743d627261766f2671756f72756d3d666f722c6162737461696e815250905090565b7f150214d74d59b7d1e90c73fc22ef3d991dd0a76b046543d4d80ab92d2a50328f81565b6000610e2283836113cb565b905092915050565b6000610e3582611480565b9050919050565b7f000000000000000000000000000000000000000000000000000000000000000081565b60007fbf26d897000000000000000000000000000000000000000000000000000000007bffffffffffffffffffffffffffffffffffffffffffffffffffffffff1916827bffffffffffffffffffffffffffffffffffffffffffffffffffffffff19161480610ed35750610ed282611556565b5b9050919050565b6000610ee46115c0565b905090565b600033905090565b610ef9610cee565b811115610f3b576040517f08c379a0000000000000000000000000000000000000000000000000000000008152600401610f329061342f565b60405180910390fd5b60006003549050816003819055507f0553476bf02ef2726e8ce5ced78d63e26e602e4a2257b1f559418e24b46339978183604051610f7a9291906136ba565b60405180910390a15050565b610f9385858585856115c8565b5050505050565b600081600001519050919050565b6000610fbb610fb5611749565b8361180c565b9050919050565b6000806000610fd38787878761183f565b91509150610fe08161194c565b8192505050949350505050565b6000806001600087815260200190815260200160002090506001600781111561103f577f4e487b7100000000000000000000000000000000000000000000000000000000600052602160045260246000fd5b61104887610ae3565b6007811115611080577f4e487b7100000000000000000000000000000000000000000000000000000000600052602160045260246000fd5b146110c0576040517f08c379a00000000000000000000000000000000000000000000000000000000081526004016110b7906134ef565b60405180910390fd5b600061111e8661110f846000016040518060200160405290816000820160009054906101000a900467ffffffffffffffff1667ffffffffffffffff1667ffffffffffffffff1681525050610f9a565b67ffffffffffffffff16610e16565b905061112c87878784611c9d565b8573ffffffffffffffffffffffffffffffffffffffff167fb8e138887d0aa13bab447e82de9d5c1777041ecd21ca36ba824ff1e6c07ddda488878488604051611178949392919061377b565b60405180910390a28092505050949350505050565b60008060016000848152602001908152602001600020604051806080016040529081600082016040518060200160405290816000820160009054906101000a900467ffffffffffffffff1667ffffffffffffffff1667ffffffffffffffff16815250508152602001600182016040518060200160405290816000820160009054906101000a900467ffffffffffffffff1667ffffffffffffffff1667ffffffffffffffff168152505081526020016002820160009054906101000a900460ff161515151581526020016002820160019054906101000a900460ff161515151581525050905080604001511561128657600791505061134f565b80606001511561129a57600291505061134f565b6112a78160000151611f15565b156112b657600091505061134f565b6112c38160200151611f15565b156112d257600191505061134f565b6112df8160200151611f2f565b15611314576112ed83611f5b565b80156112fe57506112fd83611fa2565b5b61130957600361130c565b60045b91505061134f565b6040517f08c379a00000000000000000000000000000000000000000000000000000000081526004016113469061358f565b60405180910390fd5b919050565b600061135e610d01565b6113743360014361136f9190613b34565b610e16565b10156113b5576040517f08c379a00000000000000000000000000000000000000000000000000000000081526004016113ac9061344f565b60405180910390fd5b6113c185858585611fcd565b9050949350505050565b60007f000000000000000000000000000000000000000000000000000000000000000073ffffffffffffffffffffffffffffffffffffffff16633a46b1a884846040518363ffffffff1660e01b815260040161142892919061320f565b60206040518083038186803b15801561144057600080fd5b505afa158015611454573d6000803e3d6000fd5b505050506040513d601f19601f820116820180604052508101906114789190612a63565b905092915050565b600061148a610cee565b611492610cf7565b7f000000000000000000000000000000000000000000000000000000000000000073ffffffffffffffffffffffffffffffffffffffff16638e539e8c856040518263ffffffff1660e01b81526004016114eb91906135ef565b60206040518083038186803b15801561150357600080fd5b505afa158015611517573d6000803e3d6000fd5b505050506040513d601f19601f8201168201806040525081019061153b9190612a63565b6115459190613ada565b61154f9190613aa9565b9050919050565b60007f01ffc9a7000000000000000000000000000000000000000000000000000000007bffffffffffffffffffffffffffffffffffffffffffffffffffffffff1916827bffffffffffffffffffffffffffffffffffffffffffffffffffffffff1916149050919050565b600030905090565b600060405180606001604052806027815260200161438560279139905060005b85518110156117405760008087838151811061162d577f4e487b7100000000000000000000000000000000000000000000000000000000600052603260045260246000fd5b602002602001015173ffffffffffffffffffffffffffffffffffffffff16878481518110611684577f4e487b7100000000000000000000000000000000000000000000000000000000600052603260045260246000fd5b60200260200101518785815181106116c5577f4e487b7100000000000000000000000000000000000000000000000000000000600052603260045260246000fd5b60200260200101516040516116da91906131c1565b60006040518083038185875af1925050503d8060008114611717576040519150601f19603f3d011682016040523d82523d6000602084013e61171c565b606091505b509150915061172c828286612293565b5050508061173990613d07565b90506115e8565b50505050505050565b60007f000000000000000000000000000000000000000000000000000000000000000046141561179b577f00000000000000000000000000000000000000000000000000000000000000009050611809565b6118067f00000000000000000000000000000000000000000000000000000000000000007f00000000000000000000000000000000000000000000000000000000000000007f00000000000000000000000000000000000000000000000000000000000000006122fa565b90505b90565b600082826040516020016118219291906131d8565b60405160208183030381529060405280519060200120905092915050565b6000807f7fffffffffffffffffffffffffffffff5d576e7357a4501ddfe92f46681b20a08360001c111561187a576000600391509150611943565b601b8560ff16141580156118925750601c8560ff1614155b156118a4576000600491509150611943565b6000600187878787604051600081526020016040526040516118c99493929190613352565b6020604051602081039080840390855afa1580156118eb573d6000803e3d6000fd5b505050602060405103519050600073ffffffffffffffffffffffffffffffffffffffff168173ffffffffffffffffffffffffffffffffffffffff16141561193a57600060019250925050611943565b80600092509250505b94509492505050565b60006004811115611986577f4e487b7100000000000000000000000000000000000000000000000000000000600052602160045260246000fd5b8160048111156119bf577f4e487b7100000000000000000000000000000000000000000000000000000000600052602160045260246000fd5b14156119ca57611c9a565b60016004811115611a04577f4e487b7100000000000000000000000000000000000000000000000000000000600052602160045260246000fd5b816004811115611a3d577f4e487b7100000000000000000000000000000000000000000000000000000000600052602160045260246000fd5b1415611a7e576040517f08c379a0000000000000000000000000000000000000000000000000000000008152600401611a75906133ef565b60405180910390fd5b60026004811115611ab8577f4e487b7100000000000000000000000000000000000000000000000000000000600052602160045260246000fd5b816004811115611af1577f4e487b7100000000000000000000000000000000000000000000000000000000600052602160045260246000fd5b1415611b32576040517f08c379a0000000000000000000000000000000000000000000000000000000008152600401611b299061346f565b60405180910390fd5b60036004811115611b6c577f4e487b7100000000000000000000000000000000000000000000000000000000600052602160045260246000fd5b816004811115611ba5577f4e487b7100000000000000000000000000000000000000000000000000000000600052602160045260246000fd5b1415611be6576040517f08c379a0000000000000000000000000000000000000000000000000000000008152600401611bdd906134af565b60405180910390fd5b600480811115611c1f577f4e487b7100000000000000000000000000000000000000000000000000000000600052602160045260246000fd5b816004811115611c58577f4e487b7100000000000000000000000000000000000000000000000000000000600052602160045260246000fd5b1415611c99576040517f08c379a0000000000000000000000000000000000000000000000000000000008152600401611c909061352f565b60405180910390fd5b5b50565b60006002600086815260200190815260200160002090508060030160008573ffffffffffffffffffffffffffffffffffffffff1673ffffffffffffffffffffffffffffffffffffffff16815260200190815260200160002060009054906101000a900460ff1615611d43576040517f08c379a0000000000000000000000000000000000000000000000000000000008152600401611d3a906134cf565b60405180910390fd5b60018160030160008673ffffffffffffffffffffffffffffffffffffffff1673ffffffffffffffffffffffffffffffffffffffff16815260200190815260200160002060006101000a81548160ff02191690831515021790555060006002811115611dd7577f4e487b7100000000000000000000000000000000000000000000000000000000600052602160045260246000fd5b60ff168360ff161415611e045781816000016000828254611df89190613a15565b92505081905550611f0e565b60016002811115611e3e577f4e487b7100000000000000000000000000000000000000000000000000000000600052602160045260246000fd5b60ff168360ff161415611e6b5781816001016000828254611e5f9190613a15565b92505081905550611f0d565b600280811115611ea4577f4e487b7100000000000000000000000000000000000000000000000000000000600052602160045260246000fd5b60ff168360ff161415611ed15781816002016000828254611ec59190613a15565b92505081905550611f0c565b6040517f08c379a0000000000000000000000000000000000000000000000000000000008152600401611f03906135af565b60405180910390fd5b5b5b5050505050565b600043826000015167ffffffffffffffff16119050919050565b6000611f3a82612334565b8015611f54575043826000015167ffffffffffffffff1611155b9050919050565b60008060026000848152602001908152602001600020905080600201548160010154611f879190613a15565b611f98611f93856109e6565b610e2a565b1115915050919050565b6000806002600084815260200190815260200160002090508060000154816001015411915050919050565b600080611fe38686868680519060200120610d79565b90508451865114612029576040517f08c379a00000000000000000000000000000000000000000000000000000000081526004016120209061348f565b60405180910390fd5b835186511461206d576040517f08c379a00000000000000000000000000000000000000000000000000000000081526004016120649061348f565b60405180910390fd5b60008651116120b1576040517f08c379a00000000000000000000000000000000000000000000000000000000081526004016120a89061350f565b60405180910390fd5b6000600160008381526020019081526020016000209050612111816000016040518060200160405290816000820160009054906101000a900467ffffffffffffffff1667ffffffffffffffff1667ffffffffffffffff168152505061234e565b612150576040517f08c379a0000000000000000000000000000000000000000000000000000000008152600401612147906135cf565b60405180910390fd5b600061216261215d610a54565b612368565b61216b43612368565b6121759190613a6b565b905060006121896121846106f7565b612368565b826121949190613a6b565b90506121ac82846000016123bf90919063ffffffff16565b6121c281846001016123bf90919063ffffffff16565b7f7d84a6263ae0d98d3329bd7b46bb4e8d6f98cd35a7adb45c274c8b7fd5ebd5e0846121ec610ee9565b8b8b8d5167ffffffffffffffff81111561222f577f4e487b7100000000000000000000000000000000000000000000000000000000600052604160045260246000fd5b60405190808252806020026020018201604052801561226257816020015b606081526020019060019003908161224d5790505b508c88888e60405161227c9998979695949392919061360a565b60405180910390a183945050505050949350505050565b606083156122a3578290506122f3565b6000835111156122b65782518084602001fd5b816040517f08c379a00000000000000000000000000000000000000000000000000000000081526004016122ea91906133cd565b60405180910390fd5b9392505050565b600083838346306040516020016123159594939291906132c8565b6040516020818303038152906040528051906020012090509392505050565b600080826000015167ffffffffffffffff16119050919050565b600080826000015167ffffffffffffffff16149050919050565b600067ffffffffffffffff80168211156123b7576040517f08c379a00000000000000000000000000000000000000000000000000000000081526004016123ae9061354f565b60405180910390fd5b819050919050565b808260000160006101000a81548167ffffffffffffffff021916908367ffffffffffffffff1602179055505050565b60006124016123fc846137ec565b6137c7565b9050808382526020820190508285602086028201111561242057600080fd5b60005b858110156124505781612436888261259f565b845260208401935060208301925050600181019050612423565b5050509392505050565b600061246d61246884613818565b6137c7565b9050808382526020820190508260005b858110156124ad5781358501612493888261265c565b84526020840193506020830192505060018101905061247d565b5050509392505050565b60006124ca6124c584613844565b6137c7565b905080838252602082019050828560208602820111156124e957600080fd5b60005b8581101561251957816124ff88826126fa565b8452602084019350602083019250506001810190506124ec565b5050509392505050565b600061253661253184613870565b6137c7565b90508281526020810184848401111561254e57600080fd5b612559848285613c62565b509392505050565b600061257461256f846138a1565b6137c7565b90508281526020810184848401111561258c57600080fd5b612597848285613c62565b509392505050565b6000813590506125ae81614311565b92915050565b600082601f8301126125c557600080fd5b81356125d58482602086016123ee565b91505092915050565b600082601f8301126125ef57600080fd5b81356125ff84826020860161245a565b91505092915050565b600082601f83011261261957600080fd5b81356126298482602086016124b7565b91505092915050565b60008135905061264181614328565b92915050565b6000813590506126568161433f565b92915050565b600082601f83011261266d57600080fd5b813561267d848260208601612523565b91505092915050565b60008083601f84011261269857600080fd5b8235905067ffffffffffffffff8111156126b157600080fd5b6020830191508360018202830111156126c957600080fd5b9250929050565b600082601f8301126126e157600080fd5b81356126f1848260208601612561565b91505092915050565b60008135905061270981614356565b92915050565b60008151905061271e81614356565b92915050565b6000813590506127338161436d565b92915050565b6000806040838503121561274c57600080fd5b600061275a8582860161259f565b925050602061276b858286016126fa565b9150509250929050565b6000806000806080858703121561278b57600080fd5b600085013567ffffffffffffffff8111156127a557600080fd5b6127b1878288016125b4565b945050602085013567ffffffffffffffff8111156127ce57600080fd5b6127da87828801612608565b935050604085013567ffffffffffffffff8111156127f757600080fd5b612803878288016125de565b925050606061281487828801612632565b91505092959194509250565b6000806000806080858703121561283657600080fd5b600085013567ffffffffffffffff81111561285057600080fd5b61285c878288016125b4565b945050602085013567ffffffffffffffff81111561287957600080fd5b61288587828801612608565b935050604085013567ffffffffffffffff8111156128a257600080fd5b6128ae878288016125de565b925050606085013567ffffffffffffffff8111156128cb57600080fd5b6128d7878288016126d0565b91505092959194509250565b600080600080600080600060e0888a0312156128fe57600080fd5b600088013567ffffffffffffffff81111561291857600080fd5b6129248a828b016125b4565b975050602088013567ffffffffffffffff81111561294157600080fd5b61294d8a828b01612608565b965050604088013567ffffffffffffffff81111561296a57600080fd5b6129768a828b016125de565b955050606088013567ffffffffffffffff81111561299357600080fd5b61299f8a828b016126d0565b945050608088013567ffffffffffffffff8111156129bc57600080fd5b6129c88a828b016126d0565b93505060a06129d98a828b016126fa565b92505060c088013567ffffffffffffffff8111156129f657600080fd5b612a028a828b016126d0565b91505092959891949750929550565b600060208284031215612a2357600080fd5b6000612a3184828501612647565b91505092915050565b600060208284031215612a4c57600080fd5b6000612a5a848285016126fa565b91505092915050565b600060208284031215612a7557600080fd5b6000612a838482850161270f565b91505092915050565b60008060408385031215612a9f57600080fd5b6000612aad858286016126fa565b9250506020612abe8582860161259f565b9150509250929050565b60008060408385031215612adb57600080fd5b6000612ae9858286016126fa565b9250506020612afa85828601612724565b9150509250929050565b60008060008060608587031215612b1a57600080fd5b6000612b28878288016126fa565b9450506020612b3987828801612724565b935050604085013567ffffffffffffffff811115612b5657600080fd5b612b6287828801612686565b925092505092959194509250565b600080600080600060a08688031215612b8857600080fd5b6000612b96888289016126fa565b9550506020612ba788828901612724565b9450506040612bb888828901612724565b9350506060612bc988828901612632565b9250506080612bda88828901612632565b9150509295509295909350565b6000612bf38383612c3f565b60208301905092915050565b6000612c0b8383612e38565b905092915050565b6000612c1f8383612ec0565b905092915050565b6000612c338383613185565b60208301905092915050565b612c4881613b68565b82525050565b612c5781613b68565b82525050565b6000612c6882613912565b612c728185613988565b9350612c7d836138d2565b8060005b83811015612cae578151612c958882612be7565b9750612ca083613954565b925050600181019050612c81565b5085935050505092915050565b6000612cc68261391d565b612cd08185613999565b935083602082028501612ce2856138e2565b8060005b85811015612d1e5784840389528151612cff8582612bff565b9450612d0a83613961565b925060208a01995050600181019050612ce6565b50829750879550505050505092915050565b6000612d3b82613928565b612d4581856139aa565b935083602082028501612d57856138f2565b8060005b85811015612d935784840389528151612d748582612c13565b9450612d7f8361396e565b925060208a01995050600181019050612d5b565b50829750879550505050505092915050565b6000612db082613933565b612dba81856139bb565b9350612dc583613902565b8060005b83811015612df6578151612ddd8882612c27565b9750612de88361397b565b925050600181019050612dc9565b5085935050505092915050565b612e0c81613b7a565b82525050565b612e1b81613b86565b82525050565b612e32612e2d82613b86565b613d50565b82525050565b6000612e438261393e565b612e4d81856139cc565b9350612e5d818560208601613c71565b612e6681613e45565b840191505092915050565b6000612e7c8261393e565b612e8681856139dd565b9350612e96818560208601613c71565b80840191505092915050565b612eab81613c1a565b82525050565b612eba81613c3e565b82525050565b6000612ecb82613949565b612ed581856139e8565b9350612ee5818560208601613c71565b612eee81613e45565b840191505092915050565b6000612f0482613949565b612f0e81856139f9565b9350612f1e818560208601613c71565b612f2781613e45565b840191505092915050565b6000612f3f6018836139f9565b9150612f4a82613e56565b602082019050919050565b6000612f626018836139f9565b9150612f6d82613e7f565b602082019050919050565b6000612f856043836139f9565b9150612f9082613ea8565b606082019050919050565b6000612fa86043836139f9565b9150612fb382613f1d565b606082019050919050565b6000612fcb601f836139f9565b9150612fd682613f92565b602082019050919050565b6000612fee600283613a0a565b9150612ff982613fbb565b600282019050919050565b60006130116021836139f9565b915061301c82613fe4565b604082019050919050565b60006130346022836139f9565b915061303f82614033565b604082019050919050565b60006130576027836139f9565b915061306282614082565b604082019050919050565b600061307a6023836139f9565b9150613085826140d1565b604082019050919050565b600061309d6018836139f9565b91506130a882614120565b602082019050919050565b60006130c06022836139f9565b91506130cb82614149565b604082019050919050565b60006130e36026836139f9565b91506130ee82614198565b604082019050919050565b60006131066021836139f9565b9150613111826141e7565b604082019050919050565b6000613129601d836139f9565b915061313482614236565b602082019050919050565b600061314c6035836139f9565b91506131578261425f565b604082019050919050565b600061316f6021836139f9565b915061317a826142ae565b604082019050919050565b61318e81613bef565b82525050565b61319d81613bef565b82525050565b6131ac81613c50565b82525050565b6131bb81613c0d565b82525050565b60006131cd8284612e71565b915081905092915050565b60006131e382612fe1565b91506131ef8285612e21565b6020820191506131ff8284612e21565b6020820191508190509392505050565b60006040820190506132246000830185612c4e565b6132316020830184613194565b9392505050565b600060808201905081810360008301526132528187612c5d565b905081810360208301526132668186612da5565b9050818103604083015261327a8185612cbb565b90506132896060830184612e12565b95945050505050565b60006020820190506132a76000830184612e03565b92915050565b60006020820190506132c26000830184612e12565b92915050565b600060a0820190506132dd6000830188612e12565b6132ea6020830187612e12565b6132f76040830186612e12565b6133046060830185613194565b6133116080830184612c4e565b9695505050505050565b60006060820190506133306000830186612e12565b61333d6020830185613194565b61334a60408301846131b2565b949350505050565b60006080820190506133676000830187612e12565b61337460208301866131b2565b6133816040830185612e12565b61338e6060830184612e12565b95945050505050565b60006020820190506133ac6000830184612ea2565b92915050565b60006020820190506133c76000830184612eb1565b92915050565b600060208201905081810360008301526133e78184612ef9565b905092915050565b6000602082019050818103600083015261340881612f32565b9050919050565b6000602082019050818103600083015261342881612f55565b9050919050565b6000602082019050818103600083015261344881612f78565b9050919050565b6000602082019050818103600083015261346881612f9b565b9050919050565b6000602082019050818103600083015261348881612fbe565b9050919050565b600060208201905081810360008301526134a881613004565b9050919050565b600060208201905081810360008301526134c881613027565b9050919050565b600060208201905081810360008301526134e88161304a565b9050919050565b600060208201905081810360008301526135088161306d565b9050919050565b6000602082019050818103600083015261352881613090565b9050919050565b60006020820190508181036000830152613548816130b3565b9050919050565b60006020820190508181036000830152613568816130d6565b9050919050565b60006020820190508181036000830152613588816130f9565b9050919050565b600060208201905081810360008301526135a88161311c565b9050919050565b600060208201905081810360008301526135c88161313f565b9050919050565b600060208201905081810360008301526135e881613162565b9050919050565b60006020820190506136046000830184613194565b92915050565b600061012082019050613620600083018c613194565b61362d602083018b612c4e565b818103604083015261363f818a612c5d565b905081810360608301526136538189612da5565b905081810360808301526136678188612d30565b905081810360a083015261367b8187612cbb565b905061368a60c08301866131a3565b61369760e08301856131a3565b8181036101008301526136aa8184612ef9565b90509a9950505050505050505050565b60006040820190506136cf6000830185613194565b6136dc6020830184613194565b9392505050565b600060a0820190506136f86000830188613194565b6137056020830187613194565b81810360408301526137178186612ef9565b90506137266060830185613194565b81810360808301526137388184612ef9565b90509695505050505050565b60006060820190506137596000830186613194565b6137666020830185613194565b6137736040830184613194565b949350505050565b60006080820190506137906000830187613194565b61379d60208301866131b2565b6137aa6040830185613194565b81810360608301526137bc8184612ef9565b905095945050505050565b60006137d16137e2565b90506137dd8282613cd6565b919050565b6000604051905090565b600067ffffffffffffffff82111561380757613806613e16565b5b602082029050602081019050919050565b600067ffffffffffffffff82111561383357613832613e16565b5b602082029050602081019050919050565b600067ffffffffffffffff82111561385f5761385e613e16565b5b602082029050602081019050919050565b600067ffffffffffffffff82111561388b5761388a613e16565b5b61389482613e45565b9050602081019050919050565b600067ffffffffffffffff8211156138bc576138bb613e16565b5b6138c582613e45565b9050602081019050919050565b6000819050602082019050919050565b6000819050602082019050919050565b6000819050602082019050919050565b6000819050602082019050919050565b600081519050919050565b600081519050919050565b600081519050919050565b600081519050919050565b600081519050919050565b600081519050919050565b6000602082019050919050565b6000602082019050919050565b6000602082019050919050565b6000602082019050919050565b600082825260208201905092915050565b600082825260208201905092915050565b600082825260208201905092915050565b600082825260208201905092915050565b600082825260208201905092915050565b600081905092915050565b600082825260208201905092915050565b600082825260208201905092915050565b600081905092915050565b6000613a2082613bef565b9150613a2b83613bef565b9250827fffffffffffffffffffffffffffffffffffffffffffffffffffffffffffffffff03821115613a6057613a5f613d5a565b5b828201905092915050565b6000613a7682613bf9565b9150613a8183613bf9565b92508267ffffffffffffffff03821115613a9e57613a9d613d5a565b5b828201905092915050565b6000613ab482613bef565b9150613abf83613bef565b925082613acf57613ace613d89565b5b828204905092915050565b6000613ae582613bef565b9150613af083613bef565b9250817fffffffffffffffffffffffffffffffffffffffffffffffffffffffffffffffff0483118215151615613b2957613b28613d5a565b5b828202905092915050565b6000613b3f82613bef565b9150613b4a83613bef565b925082821015613b5d57613b5c613d5a565b5b828203905092915050565b6000613b7382613bcf565b9050919050565b60008115159050919050565b6000819050919050565b60007fffffffff0000000000000000000000000000000000000000000000000000000082169050919050565b6000819050613bca826142fd565b919050565b600073ffffffffffffffffffffffffffffffffffffffff82169050919050565b6000819050919050565b600067ffffffffffffffff82169050919050565b600060ff82169050919050565b6000613c2582613c2c565b9050919050565b6000613c3782613bcf565b9050919050565b6000613c4982613bbc565b9050919050565b6000613c5b82613bf9565b9050919050565b82818337600083830152505050565b60005b83811015613c8f578082015181840152602081019050613c74565b83811115613c9e576000848401525b50505050565b60006002820490506001821680613cbc57607f821691505b60208210811415613cd057613ccf613de7565b5b50919050565b613cdf82613e45565b810181811067ffffffffffffffff82111715613cfe57613cfd613e16565b5b80604052505050565b6000613d1282613bef565b91507fffffffffffffffffffffffffffffffffffffffffffffffffffffffffffffffff821415613d4557613d44613d5a565b5b600182019050919050565b6000819050919050565b7f4e487b7100000000000000000000000000000000000000000000000000000000600052601160045260246000fd5b7f4e487b7100000000000000000000000000000000000000000000000000000000600052601260045260246000fd5b7f4e487b7100000000000000000000000000000000000000000000000000000000600052602160045260246000fd5b7f4e487b7100000000000000000000000000000000000000000000000000000000600052602260045260246000fd5b7f4e487b7100000000000000000000000000000000000000000000000000000000600052604160045260246000fd5b6000601f19601f8301169050919050565b7f45434453413a20696e76616c6964207369676e61747572650000000000000000600082015250565b7f476f7665726e6f723a206f6e6c79476f7665726e616e63650000000000000000600082015250565b7f476f7665726e6f72566f74657351756f72756d4672616374696f6e3a2071756f60008201527f72756d4e756d657261746f72206f7665722071756f72756d44656e6f6d696e6160208201527f746f720000000000000000000000000000000000000000000000000000000000604082015250565b7f476f7665726e6f72436f6d7061746962696c697479427261766f3a2070726f7060008201527f6f73657220766f7465732062656c6f772070726f706f73616c2074687265736860208201527f6f6c640000000000000000000000000000000000000000000000000000000000604082015250565b7f45434453413a20696e76616c6964207369676e6174757265206c656e67746800600082015250565b7f1901000000000000000000000000000000000000000000000000000000000000600082015250565b7f476f7665726e6f723a20696e76616c69642070726f706f73616c206c656e677460008201527f6800000000000000000000000000000000000000000000000000000000000000602082015250565b7f45434453413a20696e76616c6964207369676e6174757265202773272076616c60008201527f7565000000000000000000000000000000000000000000000000000000000000602082015250565b7f476f7665726e6f72566f74696e6753696d706c653a20766f746520616c72656160008201527f6479206361737400000000000000000000000000000000000000000000000000602082015250565b7f476f7665726e6f723a20766f7465206e6f742063757272656e746c792061637460008201527f6976650000000000000000000000000000000000000000000000000000000000602082015250565b7f476f7665726e6f723a20656d7074792070726f706f73616c0000000000000000600082015250565b7f45434453413a20696e76616c6964207369676e6174757265202776272076616c60008201527f7565000000000000000000000000000000000000000000000000000000000000602082015250565b7f53616665436173743a2076616c756520646f65736e27742066697420696e203660008201527f3420626974730000000000000000000000000000000000000000000000000000602082015250565b7f476f7665726e6f723a2070726f706f73616c206e6f742073756363657373667560008201527f6c00000000000000000000000000000000000000000000000000000000000000602082015250565b7f476f7665726e6f723a20756e6b6e6f776e2070726f706f73616c206964000000600082015250565b7f476f7665726e6f72566f74696e6753696d706c653a20696e76616c696420766160008201527f6c756520666f7220656e756d20566f7465547970650000000000000000000000602082015250565b7f476f7665726e6f723a2070726f706f73616c20616c726561647920657869737460008201527f7300000000000000000000000000000000000000000000000000000000000000602082015250565b6008811061430e5761430d613db8565b5b50565b61431a81613b68565b811461432557600080fd5b50565b61433181613b86565b811461433c57600080fd5b50565b61434881613b90565b811461435357600080fd5b50565b61435f81613bef565b811461436a57600080fd5b50565b61437681613c0d565b811461438157600080fd5b5056fe476f7665726e6f723a2063616c6c20726576657274656420776974686f7574206d657373616765a26469706673582212200c80bdbc17aa1718c3494ac8c7ee7fba759fddc43facc7b719b3677f6d00f36a64736f6c63430008030033",
  "linkReferences": {},
  "deployedLinkReferences": {}
}